{
  "contractName": "Chart",
  "abi": [
    {
      "constant": true,
      "inputs": [
        {
          "name": "real_base",
          "type": "int128"
        },
        {
          "name": "exponent",
          "type": "int88"
        }
      ],
      "name": "ipow",
      "outputs": [
        {
          "name": "",
          "type": "int128"
        }
      ],
      "payable": false,
      "stateMutability": "pure",
      "type": "function"
    },
    {
      "constant": true,
      "inputs": [
        {
          "name": "real_value",
          "type": "int128"
        }
      ],
      "name": "fromReal",
      "outputs": [
        {
          "name": "",
          "type": "int88"
        }
      ],
      "payable": false,
      "stateMutability": "pure",
      "type": "function"
    },
    {
      "constant": true,
      "inputs": [
        {
          "name": "numerator",
          "type": "int88"
        },
        {
          "name": "denominator",
          "type": "int88"
        }
      ],
      "name": "fraction",
      "outputs": [
        {
          "name": "",
          "type": "int128"
        }
      ],
      "payable": false,
      "stateMutability": "pure",
      "type": "function"
    },
    {
      "constant": true,
      "inputs": [],
      "name": "payoutCurve",
      "outputs": [
        {
          "name": "",
          "type": "uint8"
        }
      ],
      "payable": false,
      "stateMutability": "view",
      "type": "function"
    },
    {
      "constant": true,
      "inputs": [
        {
          "name": "real_numerator",
          "type": "int128"
        },
        {
          "name": "real_denominator",
          "type": "int128"
        }
      ],
      "name": "div",
      "outputs": [
        {
          "name": "",
          "type": "int128"
        }
      ],
      "payable": false,
      "stateMutability": "pure",
      "type": "function"
    },
    {
      "constant": true,
      "inputs": [
        {
          "name": "real_value",
          "type": "int128"
        }
      ],
      "name": "fpartSigned",
      "outputs": [
        {
          "name": "",
          "type": "int128"
        }
      ],
      "payable": false,
      "stateMutability": "pure",
      "type": "function"
    },
    {
      "constant": true,
      "inputs": [
        {
          "name": "real_arg",
          "type": "int128"
        }
      ],
      "name": "atanSmall",
      "outputs": [
        {
          "name": "",
          "type": "int128"
        }
      ],
      "payable": false,
      "stateMutability": "pure",
      "type": "function"
    },
    {
      "constant": true,
      "inputs": [],
      "name": "DECIMALS",
      "outputs": [
        {
          "name": "",
          "type": "uint256"
        }
      ],
      "payable": false,
      "stateMutability": "view",
      "type": "function"
    },
    {
      "constant": true,
      "inputs": [
        {
          "name": "",
          "type": "bytes32"
        }
      ],
      "name": "songs",
      "outputs": [
        {
          "name": "submittedInBlock",
          "type": "uint256"
        },
        {
          "name": "currentUpvotes",
          "type": "uint256"
        },
        {
          "name": "allTimeUpvotes",
          "type": "uint256"
        },
        {
          "name": "numUpvoters",
          "type": "uint256"
        }
      ],
      "payable": false,
      "stateMutability": "view",
      "type": "function"
    },
    {
      "constant": true,
      "inputs": [
        {
          "name": "real_arg",
          "type": "int128"
        },
        {
          "name": "max_iterations",
          "type": "int88"
        }
      ],
      "name": "sinLimited",
      "outputs": [
        {
          "name": "",
          "type": "int128"
        }
      ],
      "payable": false,
      "stateMutability": "pure",
      "type": "function"
    },
    {
      "constant": true,
      "inputs": [
        {
          "name": "real_base",
          "type": "int128"
        },
        {
          "name": "real_exponent",
          "type": "int128"
        }
      ],
      "name": "pow",
      "outputs": [
        {
          "name": "",
          "type": "int128"
        }
      ],
      "payable": false,
      "stateMutability": "pure",
      "type": "function"
    },
    {
      "constant": true,
      "inputs": [
        {
          "name": "real_y",
          "type": "int128"
        },
        {
          "name": "real_x",
          "type": "int128"
        }
      ],
      "name": "atan2",
      "outputs": [
        {
          "name": "",
          "type": "int128"
        }
      ],
      "payable": false,
      "stateMutability": "pure",
      "type": "function"
    },
    {
      "constant": true,
      "inputs": [
        {
          "name": "real_arg",
          "type": "int128"
        }
      ],
      "name": "sqrt",
      "outputs": [
        {
          "name": "",
          "type": "int128"
        }
      ],
      "payable": false,
      "stateMutability": "pure",
      "type": "function"
    },
    {
      "constant": true,
      "inputs": [
        {
          "name": "",
          "type": "address"
        }
      ],
      "name": "balanceOf",
      "outputs": [
        {
          "name": "",
          "type": "uint256"
        }
      ],
      "payable": false,
      "stateMutability": "view",
      "type": "function"
    },
    {
      "constant": true,
      "inputs": [
        {
          "name": "real_arg",
          "type": "int128"
        },
        {
          "name": "max_iterations",
          "type": "int256"
        }
      ],
      "name": "lnLimited",
      "outputs": [
        {
          "name": "",
          "type": "int128"
        }
      ],
      "payable": false,
      "stateMutability": "pure",
      "type": "function"
    },
    {
      "constant": true,
      "inputs": [
        {
          "name": "real_value",
          "type": "int128"
        }
      ],
      "name": "fpart",
      "outputs": [
        {
          "name": "",
          "type": "int128"
        }
      ],
      "payable": false,
      "stateMutability": "pure",
      "type": "function"
    },
    {
      "constant": true,
      "inputs": [
        {
          "name": "",
          "type": "address"
        }
      ],
      "name": "receivedTokenGrant",
      "outputs": [
        {
          "name": "",
          "type": "bool"
        }
      ],
      "payable": false,
      "stateMutability": "view",
      "type": "function"
    },
    {
      "constant": true,
      "inputs": [
        {
          "name": "real_arg",
          "type": "int128"
        },
        {
          "name": "max_iterations",
          "type": "int256"
        }
      ],
      "name": "expLimited",
      "outputs": [
        {
          "name": "",
          "type": "int128"
        }
      ],
      "payable": false,
      "stateMutability": "pure",
      "type": "function"
    },
    {
      "constant": true,
      "inputs": [
        {
          "name": "real_value",
          "type": "int128"
        }
      ],
      "name": "ipart",
      "outputs": [
        {
          "name": "",
          "type": "int128"
        }
      ],
      "payable": false,
      "stateMutability": "pure",
      "type": "function"
    },
    {
      "constant": true,
      "inputs": [
        {
          "name": "real_arg",
          "type": "int128"
        }
      ],
      "name": "cos",
      "outputs": [
        {
          "name": "",
          "type": "int128"
        }
      ],
      "payable": false,
      "stateMutability": "pure",
      "type": "function"
    },
    {
      "constant": true,
      "inputs": [
        {
          "name": "real_arg",
          "type": "int128"
        }
      ],
      "name": "exp",
      "outputs": [
        {
          "name": "",
          "type": "int128"
        }
      ],
      "payable": false,
      "stateMutability": "pure",
      "type": "function"
    },
    {
      "constant": true,
      "inputs": [
        {
          "name": "real_value",
          "type": "int128"
        }
      ],
      "name": "fractionalBits",
      "outputs": [
        {
          "name": "",
          "type": "uint40"
        }
      ],
      "payable": false,
      "stateMutability": "pure",
      "type": "function"
    },
    {
      "constant": true,
      "inputs": [
        {
          "name": "real_arg",
          "type": "int128"
        }
      ],
      "name": "sin",
      "outputs": [
        {
          "name": "",
          "type": "int128"
        }
      ],
      "payable": false,
      "stateMutability": "pure",
      "type": "function"
    },
    {
      "constant": true,
      "inputs": [
        {
          "name": "real_a",
          "type": "int128"
        },
        {
          "name": "real_b",
          "type": "int128"
        }
      ],
      "name": "mul",
      "outputs": [
        {
          "name": "",
          "type": "int128"
        }
      ],
      "payable": false,
      "stateMutability": "pure",
      "type": "function"
    },
    {
      "constant": true,
      "inputs": [
        {
          "name": "real_value",
          "type": "int128"
        }
      ],
      "name": "round",
      "outputs": [
        {
          "name": "",
          "type": "int128"
        }
      ],
      "payable": false,
      "stateMutability": "pure",
      "type": "function"
    },
    {
      "constant": true,
      "inputs": [],
      "name": "tokenGrantSize",
      "outputs": [
        {
          "name": "",
          "type": "uint256"
        }
      ],
      "payable": false,
      "stateMutability": "view",
      "type": "function"
    },
    {
      "constant": true,
      "inputs": [
        {
          "name": "real_arg",
          "type": "int128"
        }
      ],
      "name": "ln",
      "outputs": [
        {
          "name": "",
          "type": "int128"
        }
      ],
      "payable": false,
      "stateMutability": "pure",
      "type": "function"
    },
    {
      "constant": true,
      "inputs": [
        {
          "name": "real_value",
          "type": "int128"
        }
      ],
      "name": "abs",
      "outputs": [
        {
          "name": "",
          "type": "int128"
        }
      ],
      "payable": false,
      "stateMutability": "pure",
      "type": "function"
    },
    {
      "constant": true,
      "inputs": [],
      "name": "proposalCost",
      "outputs": [
        {
          "name": "",
          "type": "uint256"
        }
      ],
      "payable": false,
      "stateMutability": "view",
      "type": "function"
    },
    {
      "constant": true,
      "inputs": [],
      "name": "upvoteCost",
      "outputs": [
        {
          "name": "",
          "type": "uint256"
        }
      ],
      "payable": false,
      "stateMutability": "view",
      "type": "function"
    },
    {
      "constant": true,
      "inputs": [
        {
          "name": "real_arg",
          "type": "int128"
        }
      ],
      "name": "tan",
      "outputs": [
        {
          "name": "",
          "type": "int128"
        }
      ],
      "payable": false,
      "stateMutability": "pure",
      "type": "function"
    },
    {
      "constant": true,
      "inputs": [
        {
          "name": "ipart",
          "type": "int88"
        }
      ],
      "name": "toReal",
      "outputs": [
        {
          "name": "",
          "type": "int128"
        }
      ],
      "payable": false,
      "stateMutability": "pure",
      "type": "function"
    },
    {
      "inputs": [
        {
          "name": "_payoutCurve",
          "type": "uint8"
        },
        {
          "name": "_proposalCost",
          "type": "uint256"
        }
      ],
      "payable": false,
      "stateMutability": "nonpayable",
      "type": "constructor"
    },
    {
      "anonymous": false,
      "inputs": [
        {
          "indexed": true,
          "name": "proposer",
          "type": "address"
        },
        {
          "indexed": false,
          "name": "cid",
          "type": "bytes32"
        }
      ],
      "name": "SongProposed",
      "type": "event"
    },
    {
      "anonymous": false,
      "inputs": [
        {
          "indexed": true,
          "name": "upvoter",
          "type": "address"
        },
        {
          "indexed": false,
          "name": "cid",
          "type": "bytes32"
        }
      ],
      "name": "SongUpvoted",
      "type": "event"
    },
    {
      "anonymous": false,
      "inputs": [
        {
          "indexed": true,
          "name": "withdrawer",
          "type": "address"
        },
        {
          "indexed": false,
          "name": "cid",
          "type": "bytes32"
        },
        {
          "indexed": false,
          "name": "tokens",
          "type": "uint256"
        }
      ],
      "name": "Withdrawal",
      "type": "event"
    },
    {
      "constant": false,
      "inputs": [
        {
          "name": "cid",
          "type": "bytes32"
        }
      ],
      "name": "propose",
      "outputs": [],
      "payable": false,
      "stateMutability": "nonpayable",
      "type": "function"
    },
    {
      "constant": false,
      "inputs": [
        {
          "name": "cid",
          "type": "bytes32"
        }
      ],
      "name": "upvote",
      "outputs": [],
      "payable": false,
      "stateMutability": "nonpayable",
      "type": "function"
    },
    {
      "constant": false,
      "inputs": [
        {
          "name": "cids",
          "type": "bytes32[]"
        }
      ],
      "name": "withdraw",
      "outputs": [],
      "payable": false,
      "stateMutability": "nonpayable",
      "type": "function"
    },
    {
      "constant": true,
      "inputs": [
        {
          "name": "user",
          "type": "address"
        },
        {
          "name": "cid",
          "type": "bytes32"
        }
      ],
      "name": "getWithdrawableAmount",
      "outputs": [
        {
          "name": "",
          "type": "uint256"
        }
      ],
      "payable": false,
      "stateMutability": "view",
      "type": "function"
    },
    {
      "constant": true,
      "inputs": [
        {
          "name": "user",
          "type": "address"
        },
        {
          "name": "cid",
          "type": "bytes32"
        }
      ],
      "name": "getWithdrawableAmountRemaining",
      "outputs": [
        {
          "name": "",
          "type": "uint256"
        }
      ],
      "payable": false,
      "stateMutability": "view",
      "type": "function"
    },
    {
      "constant": true,
      "inputs": [
        {
          "name": "user",
          "type": "address"
        },
        {
          "name": "cid",
          "type": "bytes32"
        }
      ],
      "name": "getWithdrawnAmount",
      "outputs": [
        {
          "name": "",
          "type": "uint256"
        }
      ],
      "payable": false,
      "stateMutability": "view",
      "type": "function"
    },
    {
      "constant": true,
      "inputs": [
        {
          "name": "cid",
          "type": "bytes32"
        }
      ],
      "name": "getCurrentUpvotes",
      "outputs": [
        {
          "name": "",
          "type": "uint256"
        }
      ],
      "payable": false,
      "stateMutability": "view",
      "type": "function"
    },
    {
      "constant": true,
      "inputs": [
        {
          "name": "cid",
          "type": "bytes32"
        }
      ],
      "name": "getAllTimeUpvotes",
      "outputs": [
        {
          "name": "",
          "type": "uint256"
        }
      ],
      "payable": false,
      "stateMutability": "view",
      "type": "function"
    },
    {
      "constant": true,
      "inputs": [
        {
          "name": "cid",
          "type": "bytes32"
        }
      ],
      "name": "getNumUpvoters",
      "outputs": [
        {
          "name": "",
          "type": "uint256"
        }
      ],
      "payable": false,
      "stateMutability": "view",
      "type": "function"
    },
    {
      "constant": true,
      "inputs": [
        {
          "name": "cid",
          "type": "bytes32"
        },
        {
          "name": "user",
          "type": "address"
        }
      ],
      "name": "getUpvoteIndex",
      "outputs": [
        {
          "name": "",
          "type": "uint256"
        }
      ],
      "payable": false,
      "stateMutability": "view",
      "type": "function"
    },
    {
      "constant": true,
      "inputs": [
        {
          "name": "cid",
          "type": "bytes32"
        }
      ],
      "name": "getSongScore",
      "outputs": [
        {
          "name": "",
          "type": "uint256"
        }
      ],
      "payable": false,
      "stateMutability": "view",
      "type": "function"
    }
  ],
  "bytecode": "0x60806040526006600a0a6001026002556006600a0a60640260065534801561002657600080fd5b50604051604080612cd18339810180604052604081101561004657600080fd5b810190808051906020019092919080519060200190929190505050816000806101000a81548160ff0219169083600181111561007e57fe5b02179055506006600a0a81026001819055505050612c30806100a16000396000f3fe608060405234801561001057600080fd5b50600436106102695760003560e01c806384f1bd4e11610151578063b6972146116100c3578063e664f3b211610087578063e664f3b214610d74578063ee95d14114610d92578063f0033b4314610db0578063f5a5d50314610dfb578063fe2b392414610e46578063fe2e355314610efe57610269565b8063b697214614610c1d578063bf93961c14610c75578063c1d42a9414610cc0578063d271b06714610cde578063e01e92d214610d2957610269565b806399882cdb1161011557806399882cdb14610a8d578063a5b1f44d14610abb578063a807adca14610ae9578063b0cbaab214610b34578063b28332d314610b7f578063b475396c14610bd257610269565b806384f1bd4e146108e4578063866cbade1461092f5780638fd0a3ba1461099157806392aea05a146109ed578063935f43b214610a4257610269565b80632e0f2625116101ea57806367179ffb116101ae57806367179ffb146106f05780636e3daae41461074857806370a082311461079357806371465c2a146107eb578063808479751461082d57806382396bc61461088f57610269565b80632e0f2625146105895780633095ff4e146105a75780633e2f55ca146105fe5780634672f5551461065657806350212643146106ae57610269565b80631e9a26b4116102315780631e9a26b41461042d5780631f8a74fa1461045957806325f39a631461049b5780632a663686146104f35780632d8e0c9b1461053e57610269565b8063082ec5561461026e57806315dbfe28146102c6578063175183df146103115780631dade0d4146103735780631dfbeb29146103cb575b600080fd5b6102aa6004803603604081101561028457600080fd5b810190808035600f0b90602001909291908035600a0b9060200190929190505050610f40565b6040518082600f0b600f0b815260200191505060405180910390f35b6102f5600480360360208110156102dc57600080fd5b810190808035600f0b906020019092919050505061101f565b6040518082600a0b600a0b815260200191505060405180910390f35b61035d6004803603604081101561032757600080fd5b81019080803573ffffffffffffffffffffffffffffffffffffffff1690602001909291908035906020019092919050505061104b565b6040518082815260200191505060405180910390f35b6103af6004803603604081101561038957600080fd5b810190808035600a0b90602001909291908035600a0b906020019092919050505061106a565b6040518082600f0b600f0b815260200191505060405180910390f35b610417600480360360408110156103e157600080fd5b8101908080359060200190929190803573ffffffffffffffffffffffffffffffffffffffff16906020019092919050505061108e565b6040518082815260200191505060405180910390f35b6104356110ef565b6040518082600181111561044557fe5b60ff16815260200191505060405180910390f35b6104856004803603602081101561046f57600080fd5b8101908080359060200190929190505050611101565b6040518082815260200191505060405180910390f35b6104d7600480360360408110156104b157600080fd5b810190808035600f0b90602001909291908035600f0b9060200190929190505050611121565b6040518082600f0b600f0b815260200191505060405180910390f35b6105226004803603602081101561050957600080fd5b810190808035600f0b9060200190929190505050611153565b6040518082600f0b600f0b815260200191505060405180910390f35b61056d6004803603602081101561055457600080fd5b810190808035600f0b9060200190929190505050611183565b6040518082600f0b600f0b815260200191505060405180910390f35b610591611214565b6040518082815260200191505060405180910390f35b6105d3600480360360208110156105bd57600080fd5b8101908080359060200190929190505050611219565b6040518085815260200184815260200183815260200182815260200194505050505060405180910390f35b61063a6004803603604081101561061457600080fd5b810190808035600f0b90602001909291908035600a0b9060200190929190505050611249565b6040518082600f0b600f0b815260200191505060405180910390f35b6106926004803603604081101561066c57600080fd5b810190808035600f0b90602001909291908035600f0b90602001909291905050506112fa565b6040518082600f0b600f0b815260200191505060405180910390f35b6106da600480360360208110156106c457600080fd5b81019080803590602001909291905050506114a2565b6040518082815260200191505060405180910390f35b61072c6004803603604081101561070657600080fd5b810190808035600f0b90602001909291908035600f0b90602001909291905050506114c2565b6040518082600f0b600f0b815260200191505060405180910390f35b6107776004803603602081101561075e57600080fd5b810190808035600f0b906020019092919050505061157c565b6040518082600f0b600f0b815260200191505060405180910390f35b6107d5600480360360208110156107a957600080fd5b81019080803573ffffffffffffffffffffffffffffffffffffffff1690602001909291905050506115a9565b6040518082815260200191505060405180910390f35b6108176004803603602081101561080157600080fd5b81019080803590602001909291905050506115c1565b6040518082815260200191505060405180910390f35b6108796004803603604081101561084357600080fd5b81019080803573ffffffffffffffffffffffffffffffffffffffff16906020019092919080359060200190929190505050611678565b6040518082815260200191505060405180910390f35b6108c8600480360360408110156108a557600080fd5b810190808035600f0b9060200190929190803590602001909291905050506119e5565b6040518082600f0b600f0b815260200191505060405180910390f35b610913600480360360208110156108fa57600080fd5b810190808035600f0b9060200190929190505050611b88565b6040518082600f0b600f0b815260200191505060405180910390f35b61097b6004803603604081101561094557600080fd5b81019080803573ffffffffffffffffffffffffffffffffffffffff16906020019092919080359060200190929190505050611bbc565b6040518082815260200191505060405180910390f35b6109d3600480360360208110156109a757600080fd5b81019080803573ffffffffffffffffffffffffffffffffffffffff169060200190929190505050611c1d565b604051808215151515815260200191505060405180910390f35b610a2660048036036040811015610a0357600080fd5b810190808035600f0b906020019092919080359060200190929190505050611c3d565b6040518082600f0b600f0b815260200191505060405180910390f35b610a7160048036036020811015610a5857600080fd5b810190808035600f0b9060200190929190505050611cbc565b6040518082600f0b600f0b815260200191505060405180910390f35b610ab960048036036020811015610aa357600080fd5b8101908080359060200190929190505050611cd0565b005b610ae760048036036020811015610ad157600080fd5b810190808035906020019092919050505061205e565b005b610b1860048036036020811015610aff57600080fd5b810190808035600f0b90602001909291905050506123f4565b6040518082600f0b600f0b815260200191505060405180910390f35b610b6360048036036020811015610b4a57600080fd5b810190808035600f0b906020019092919050505061240e565b6040518082600f0b600f0b815260200191505060405180910390f35b610bae60048036036020811015610b9557600080fd5b810190808035600f0b9060200190929190505050612422565b604051808264ffffffffff1664ffffffffff16815260200191505060405180910390f35b610c0160048036036020811015610be857600080fd5b810190808035600f0b9060200190929190505050612456565b6040518082600f0b600f0b815260200191505060405180910390f35b610c5960048036036040811015610c3357600080fd5b810190808035600f0b90602001909291908035600f0b906020019092919050505061246a565b6040518082600f0b600f0b815260200191505060405180910390f35b610ca460048036036020811015610c8b57600080fd5b810190808035600f0b906020019092919050505061248c565b6040518082600f0b600f0b815260200191505060405180910390f35b610cc8612501565b6040518082815260200191505060405180910390f35b610d0d60048036036020811015610cf457600080fd5b810190808035600f0b9060200190929190505050612507565b6040518082600f0b600f0b815260200191505060405180910390f35b610d5860048036036020811015610d3f57600080fd5b810190808035600f0b906020019092919050505061251b565b6040518082600f0b600f0b815260200191505060405180910390f35b610d7c61253c565b6040518082815260200191505060405180910390f35b610d9a612542565b6040518082815260200191505060405180910390f35b610ddf60048036036020811015610dc657600080fd5b810190808035600f0b9060200190929190505050612548565b6040518082600f0b600f0b815260200191505060405180910390f35b610e2a60048036036020811015610e1157600080fd5b810190808035600a0b906020019092919050505061256b565b6040518082600f0b600f0b815260200191505060405180910390f35b610efc60048036036020811015610e5c57600080fd5b8101908080359060200190640100000000811115610e7957600080fd5b820183602082011115610e8b57600080fd5b80359060200191846020830284011164010000000083111715610ead57600080fd5b919080806020026020016040519081016040528093929190818152602001838360200280828437600081840152601f19601f82011690508083019250505050505050919291929050505061258d565b005b610f2a60048036036020811015610f1457600080fd5b8101908080359060200190929190505050612837565b6040518082815260200191505060405180910390f35b60008082600a0b1215610fbb576040517f08c379a000000000000000000000000000000000000000000000000000000000815260040180806020018281038252601b8152602001807f69706f773a206578706f6e656e74206d757374206265203e3d2030000000000081525060200191505060405180910390fd5b600060286001600f0b6000821215610fcf57fe5b901b90505b600083600a0b14611015576001808416600a0b1415610ffa57610ff7818561246a565b90505b600183600a0b901d925061100e848561246a565b9350610fd4565b8091505092915050565b600060286001600f0b600082121561103357fe5b901b600f0b82600f0b8161104357fe5b059050919050565b60006110578383611bbc565b6110618484611678565b03905092915050565b60006110866110788461256b565b6110818461256b565b611121565b905092915050565b60006003600084815260200190815260200160002060040160008373ffffffffffffffffffffffffffffffffffffffff1673ffffffffffffffffffffffffffffffffffffffff16815260200190815260200160002060000154905092915050565b6000809054906101000a900460ff1681565b600060036000838152602001908152602001600020600301549050919050565b600081600f0b60286001600f0b600082121561113957fe5b901b600f0b84600f0b028161114a57fe5b05905092915050565b60008061115f83611b88565b9050600083600f0b1215611179578060000391505061117e565b809150505b919050565b600080611190838461246a565b905061120c64fffe4bcada6112056455232d2bb26111fe643177d955716111f7641da06a6e336111f0640d4ca0c2836111e97ffffffffffffffffffffffffffffffffffffffffffffffffffffffffd1093cbfa8c61246a565b018a61246a565b038861246a565b018661246a565b038461246a565b018461246a565b915050919050565b600681565b60036020528060005260406000206000915090508060000154908060010154908060020154908060030154905084565b60006506487ed5110b600f0b83600f0b8161126057fe5b079250600060286001600f0b600082121561127757fe5b901b905060006001840390505b600081600a0b126112e6576112c16112bb61129f878861246a565b6112b660038560020201600286600202010261256b565b611121565b8361246a565b60286001600f0b60008212156112d357fe5b901b039150808060019003915050611284565b506112f1848261246a565b91505092915050565b60008082600f0b14156113225760286001600f0b600082121561131957fe5b901b905061149c565b600083600f0b141561139457600082600f0b121561138b576040517f08c379a0000000000000000000000000000000000000000000000000000000008152600401808060200182810382526031815260200180612bb26031913960400191505060405180910390fd5b6000905061149c565b600061139f83611b88565b600f0b141561140557600082600f0b13156113cd576113c6836113c18461101f565b610f40565b905061149c565b6113fe60286001600f0b60008212156113e257fe5b901b6113f9856113f48660000361101f565b610f40565b611121565b905061149c565b600083600f0b121561147f576040517f08c379a000000000000000000000000000000000000000000000000000000000815260040180806020018281038252601b8152602001807f706f773a207265616c5f62617365206d757374206265203e3d2030000000000081525060200191505060405180910390fd5b6114996114948361148f86612507565b61246a565b61240e565b90505b92915050565b600060036000838152602001908152602001600020600101549050919050565b60008060006114d08461251b565b905060006114dd8661251b565b905080600f0b82600f0b1315611506576114ff6114fa8284611121565b611183565b9250611523565b6115186115138383611121565b611183565b6501921fb544430392505b600085600f0b121561155c57600086600f0b121561154b576503243f6a888683039250611557565b826503243f6a88860392505b611570565b600086600f0b121561156f578260000392505b5b82935050505092915050565b60006115a282600160286001600f0b600082121561159657fe5b901b600f0b901d6112fa565b9050919050565b60046020528060005260406000206000915090505481565b6000806003600084815260200190815260200160002090506000816003015411611653576040517f08c379a00000000000000000000000000000000000000000000000000000000081526004018080602001828103825260128152602001807f736f6e6720646f65736e2774206578697374000000000000000000000000000081525060200191505060405180910390fd5b60008160000154430390506001810182600201548161166e57fe5b0492505050919050565b60008060036000848152602001908152602001600020905060008160040160008673ffffffffffffffffffffffffffffffffffffffff1673ffffffffffffffffffffffffffffffffffffffff1681526020019081526020016000206000015414156116e75760009150506119df565b600060018111156116f457fe5b6000809054906101000a900460ff16600181111561170e57fe5b14156117a557600060018260040160008773ffffffffffffffffffffffffffffffffffffffff1673ffffffffffffffffffffffffffffffffffffffff168152602001908152602001600020600001540390506000826002015490506002816001847ffffffffffffffffffffffffffffffffffffffffffffffffffffffffffffffffe02038161179957fe5b040193505050506119df565b6001808111156117b157fe5b6000809054906101000a900460ff1660018111156117cb57fe5b141561197157600060018260040160008773ffffffffffffffffffffffffffffffffffffffff1673ffffffffffffffffffffffffffffffffffffffff16815260200190815260200160002060000154039050600061184161182f846002015461256b565b61183c6006600a0a61256b565b611121565b90506000611850826002610f40565b9050600061186a61186560028087010a61256b565b612507565b905060006118856118806002600188010a61256b565b612507565b9050600061189d85611897600161256b565b01612507565b905060006118b46118ae600261256b565b8761246a565b6118be878561246a565b6118c8888761246a565b6118d2888761246a565b6118dc898961246a565b030103039050600061192c6118f1600261256b565b611925898661191f7fffffffffffffffffffffffffffffffffffffffffffffffffffffffffffffffff61256b565b0161246a565b850161246a565b9050600061193a8383611121565b90506119528161194d6006600a0a61256b565b61246a565b905061195d8161101f565b600a0b9a50505050505050505050506119df565b6040517f08c379a00000000000000000000000000000000000000000000000000000000081526004018080602001828103825260148152602001807f756e6b6e6f776e207061796f757420637572766500000000000000000000000081525060200191505060405180910390fd5b92915050565b60008083600f0b13611a5f576040517f08c379a000000000000000000000000000000000000000000000000000000000815260040180806020018281038252601f8152602001807f6c6e4c696d697465643a207265616c5f617267206d757374206265203e20300081525060200191505060405180910390fd5b60286001600f0b6000821215611a7157fe5b901b600f0b83600f0b1415611a895760009050611b82565b600080611a9585612857565b80925081935050506000611ad360286001600f0b6000821215611ab457fe5b901b840360286001600f0b6000821215611aca57fe5b901b8501611121565b9050600080905060008090505b8681600a0b1215611b3b576000611b14611b008560018560020201610f40565b611b0f6001856002020161256b565b611121565b90508083019250600081600f0b1415611b2d5750611b3b565b508080600101915050611ae0565b50611b6081600160286001600f0b6000821215611b5457fe5b901b600f0b901b61246a565b905080611b7a611b6f8561256b565b64b17217f7d261246a565b019450505050505b92915050565b600060286001600f0b6000821215611b9c57fe5b901b600f0b611baa8361251b565b600f0b81611bb457fe5b079050919050565b60006003600083815260200190815260200160002060040160008473ffffffffffffffffffffffffffffffffffffffff1673ffffffffffffffffffffffffffffffffffffffff16815260200190815260200160002060010154905092915050565b60056020528060005260406000206000915054906101000a900460ff1681565b60008060009050600060286001600f0b6000821215611c5857fe5b901b905060008090505b8481600a0b1215611cb0578183019250611c9082611c8b88611c866001860161256b565b611121565b61246a565b9150600082600f0b1415611ca357611cb0565b8080600101915050611c62565b50819250505092915050565b6000611cc782611153565b82039050919050565b60001515600560003373ffffffffffffffffffffffffffffffffffffffff1673ffffffffffffffffffffffffffffffffffffffff16815260200190815260200160002060009054906101000a900460ff1615151415611dd1576001600560003373ffffffffffffffffffffffffffffffffffffffff1673ffffffffffffffffffffffffffffffffffffffff16815260200190815260200160002060006101000a81548160ff021916908315150217905550600654600460003373ffffffffffffffffffffffffffffffffffffffff1673ffffffffffffffffffffffffffffffffffffffff168152602001908152602001600020600082825401925050819055505b6000600360008381526020019081526020016000206003015414611e5d576040517f08c379a00000000000000000000000000000000000000000000000000000000081526004018080602001828103825260108152602001807f616c72656164792070726f706f7365640000000000000000000000000000000081525060200191505060405180910390fd5b600154600460003373ffffffffffffffffffffffffffffffffffffffff1673ffffffffffffffffffffffffffffffffffffffff168152602001908152602001600020541015611f14576040517f08c379a000000000000000000000000000000000000000000000000000000000815260040180806020018281038252601c8152602001807f6e6f7420656e6f75676820746f6b656e7320746f2070726f706f73650000000081525060200191505060405180910390fd5b6000600360008381526020019081526020016000209050438160000181905550600154600460003373ffffffffffffffffffffffffffffffffffffffff1673ffffffffffffffffffffffffffffffffffffffff1681526020019081526020016000206000828254039250508190555060015481600101600082825401925050819055506001548160020160008282540192505081905550806003016000815480929190600101919050555080600301548160040160003373ffffffffffffffffffffffffffffffffffffffff1673ffffffffffffffffffffffffffffffffffffffff168152602001908152602001600020600001819055503373ffffffffffffffffffffffffffffffffffffffff167f0cc60f2305b4ecf8346e50b80fb9a182172944130b812f15807a60e2144dde23836040518082815260200191505060405180910390a25050565b60001515600560003373ffffffffffffffffffffffffffffffffffffffff1673ffffffffffffffffffffffffffffffffffffffff16815260200190815260200160002060009054906101000a900460ff161515141561215f576001600560003373ffffffffffffffffffffffffffffffffffffffff1673ffffffffffffffffffffffffffffffffffffffff16815260200190815260200160002060006101000a81548160ff021916908315150217905550600654600460003373ffffffffffffffffffffffffffffffffffffffff1673ffffffffffffffffffffffffffffffffffffffff168152602001908152602001600020600082825401925050819055505b600254600460003373ffffffffffffffffffffffffffffffffffffffff1673ffffffffffffffffffffffffffffffffffffffff168152602001908152602001600020541015612216576040517f08c379a000000000000000000000000000000000000000000000000000000000815260040180806020018281038252601b8152602001807f6e6f7420656e6f75676820746f6b656e7320746f207570766f7465000000000081525060200191505060405180910390fd5b600254600460003373ffffffffffffffffffffffffffffffffffffffff1673ffffffffffffffffffffffffffffffffffffffff16815260200190815260200160002060008282540392505081905550600060036000838152602001908152602001600020905060008160040160003373ffffffffffffffffffffffffffffffffffffffff1673ffffffffffffffffffffffffffffffffffffffff1681526020019081526020016000206000015414612319576040517f08c379a0000000000000000000000000000000000000000000000000000000008152600401808060200182810382526022815260200180612be36022913960400191505060405180910390fd5b60025481600101600082825401925050819055506002548160020160008282540192505081905550806003016000815480929190600101919050555080600301548160040160003373ffffffffffffffffffffffffffffffffffffffff1673ffffffffffffffffffffffffffffffffffffffff168152602001908152602001600020600001819055503373ffffffffffffffffffffffffffffffffffffffff167f2de08546c5799e0e3f192d9f4e611602fd254316e3e34a77742bbf7f296eacd8836040518082815260200191505060405180910390a25050565b60006124076501921fb544438301612456565b9050919050565b600061241b826064611c3d565b9050919050565b600060286001600f0b600082121561243657fe5b901b600f0b6124448361251b565b600f0b8161244e57fe5b079050919050565b600061246382600f611249565b9050919050565b6000602882600f0b84600f0b02600082121561248257fe5b901d905092915050565b6000806124988361101f565b905060006001602803600164ffffffffff1660008212156124b557fe5b901b6124c085612422565b1664ffffffffff1611156124f0576000600f0b83600f0b12156124e8576001810390506124ef565b6001810190505b5b6124f98161256b565b915050919050565b60065481565b60006125148260646119e5565b9050919050565b60008082600f0b131561253057819050612537565b8160000390505b919050565b60015481565b60025481565b600061256461255683612456565b61255f846123f4565b611121565b9050919050565b600060286001600f0b600082121561257f57fe5b901b82600a0b029050919050565b60008090505b81518110156128335760008282815181106125aa57fe5b60200260200101519050600060036000838152602001908152602001600020905060008160040160003373ffffffffffffffffffffffffffffffffffffffff1673ffffffffffffffffffffffffffffffffffffffff1681526020019081526020016000206000015411612668576040517f08c379a000000000000000000000000000000000000000000000000000000000815260040180806020018281038252602d815260200180612b34602d913960400191505060405180910390fd5b60006126743384611678565b905060008260040160003373ffffffffffffffffffffffffffffffffffffffff1673ffffffffffffffffffffffffffffffffffffffff168152602001908152602001600020600101549050600081830390508084600101541015612723576040517f08c379a0000000000000000000000000000000000000000000000000000000008152600401808060200182810382526051815260200180612b616051913960600191505060405180910390fd5b828460040160003373ffffffffffffffffffffffffffffffffffffffff1673ffffffffffffffffffffffffffffffffffffffff1681526020019081526020016000206001018190555080846001016000828254039250508190555080600460003373ffffffffffffffffffffffffffffffffffffffff1673ffffffffffffffffffffffffffffffffffffffff168152602001908152602001600020600082825401925050819055503373ffffffffffffffffffffffffffffffffffffffff167f4206db6775563d1043abfcf27cd0ecd19fcc464be574a1487fc95b24957a671a8683604051808381526020018281526020019250505060405180910390a250505050508080600101915050612593565b5050565b600060036000838152602001908152602001600020600201549050919050565b600080600083600f0b136128d3576040517f08c379a000000000000000000000000000000000000000000000000000000000815260040180806020018281038252601d8152602001807f72657363616c653a207265616c5f617267206d757374206265203e203000000081525060200191505060405180910390fd5b60006128e96128e485600f0b612949565b6129a1565b60ff169050602881039150600082600a0b121561291f5781600003600a0b84600f0b600082121561291657fe5b901b9250612943565b600082600a0b126129425781600a0b84600f0b600082121561293d57fe5b901d92505b5b50915091565b6000600182901c82179150600282901c82179150600482901c82179150600882901c82179150601082901c82179150602082901c82179150604082901c82179150608082901c82179150600182901c82189050919050565b600080905060007faaaaaaaaaaaaaaaaaaaaaaaaaaaaaaaaaaaaaaaaaaaaaaaaaaaaaaaaaaaaaaaa8316146129d7576001811790505b60007fcccccccccccccccccccccccccccccccccccccccccccccccccccccccccccccccc831614612a08576002811790505b60007ff0f0f0f0f0f0f0f0f0f0f0f0f0f0f0f0f0f0f0f0f0f0f0f0f0f0f0f0f0f0f0f0831614612a39576004811790505b60007fff00ff00ff00ff00ff00ff00ff00ff00ff00ff00ff00ff00ff00ff00ff00ff00831614612a6a576008811790505b60007fffff0000ffff0000ffff0000ffff0000ffff0000ffff0000ffff0000ffff0000831614612a9b576010811790505b60007fffffffff00000000ffffffff00000000ffffffff00000000ffffffff00000000831614612acc576020811790505b60007fffffffffffffffff0000000000000000ffffffffffffffff0000000000000000831614612afd576040811790505b60007fffffffffffffffffffffffffffffffff00000000000000000000000000000000831614612b2e576080811790505b91905056fe796f7520646f6e2774206861766520616e7920746f6b656e732073746f72656420696e207468697320736f6e6763616c63756c61746564207769746864726177616c20616d6f756e742069732067726561746572207468616e2072656d61696e696e6720746f6b656e20737570706c7920666f72207468697320736f6e67706f773a207265616c5f6578706f6e656e74206d757374206265203e3d2030206966207265616c5f62617365203d3d2030796f75206861766520616c7265616479207570766f746564207468697320736f6e67a165627a7a72305820c74a2d88a806585fcb68f1b7af74d8999d15d1994c41ad16e029e0db2175edde0029",
  "source": "pragma solidity 0.5.8;\n\nimport \"./RealMath.sol\";\n\ncontract Chart is RealMath\n{\n    uint public constant DECIMALS = 6;\n    PayoutCurve public payoutCurve;\n    uint public proposalCost;\n    uint public upvoteCost = 1 * (10 ** DECIMALS);\n\n    constructor(PayoutCurve _payoutCurve, uint _proposalCost) public {\n        payoutCurve = _payoutCurve;\n        proposalCost = _proposalCost * (10 ** DECIMALS);\n    }\n\n    enum PayoutCurve {\n        Linear,\n        Reciprocal\n    }\n\n    struct Song {\n        // Tracks the block when the song was initially submitted (to facilitate calculating a score that decays over time)\n        uint submittedInBlock;\n        // Tracks the number of tokenized votes not yet withdrawn from the song.  We use this to calculate withdrawable amounts.\n        uint currentUpvotes;\n        // Tracks the total number of tokenized votes this song has received.  We use this to rank songs.\n        uint allTimeUpvotes;\n        // Tracks the number of upvoters (!= allTimeUpvotes when upvoteCost != 1)\n        uint numUpvoters;\n        // Maps a user's address to their place in the \"queue\" of users who have upvoted this song.  Used to calculate withdrawable amounts.\n        mapping(address => Upvote) upvotes;\n    }\n\n    struct Upvote {\n        uint index; // 1-based index\n        uint withdrawnAmount;\n    }\n\n    mapping(bytes32 => Song) public songs;\n    mapping(address => uint) public balanceOf; // token balances\n\n    // This mapping tracks which addresses we've seen before.  If an address has never been seen, and\n    // its balance is 0, then it receives a token grant the first time it proposes or upvotes a song.\n    // This helps us prevent users from re-upping on tokens every time they hit a 0 balance.\n    mapping(address => bool) public receivedTokenGrant;\n    uint public tokenGrantSize = 100 * (10 ** DECIMALS);\n\n    //\n    // Events\n    //\n\n    event SongProposed(address indexed proposer, bytes32 cid);\n    event SongUpvoted(address indexed upvoter, bytes32 cid);\n    event Withdrawal(address indexed withdrawer, bytes32 cid, uint tokens);\n\n    //\n    // Upvote mechanism\n    //\n\n    modifier maybeTokenGrant {\n        if (receivedTokenGrant[msg.sender] == false) {\n            receivedTokenGrant[msg.sender] = true;\n            balanceOf[msg.sender] += tokenGrantSize;\n        }\n        _;\n    }\n\n    function propose(bytes32 cid) maybeTokenGrant public {\n        require(songs[cid].numUpvoters == 0, \"already proposed\");\n        require(balanceOf[msg.sender] >= proposalCost, \"not enough tokens to propose\");\n\n        Song storage song = songs[cid];\n        song.submittedInBlock = block.number;\n\n        balanceOf[msg.sender] -= proposalCost;\n        song.currentUpvotes += proposalCost;\n        song.allTimeUpvotes += proposalCost;\n        song.numUpvoters++;\n        song.upvotes[msg.sender].index = song.numUpvoters;\n\n        emit SongProposed(msg.sender, cid);\n    }\n\n    function upvote(bytes32 cid) maybeTokenGrant public {\n        require(balanceOf[msg.sender] >= upvoteCost, \"not enough tokens to upvote\");\n        balanceOf[msg.sender] -= upvoteCost;\n\n        Song storage song = songs[cid];\n        require(song.upvotes[msg.sender].index == 0, \"you have already upvoted this song\");\n\n        song.currentUpvotes += upvoteCost;\n        song.allTimeUpvotes += upvoteCost;\n        song.numUpvoters++;\n        song.upvotes[msg.sender].index = song.numUpvoters;\n\n        emit SongUpvoted(msg.sender, cid);\n    }\n\n    function withdraw(bytes32[] memory cids) public {\n        for (uint i = 0; i < cids.length; i++) {\n            bytes32 cid = cids[i];\n\n            Song storage song = songs[cid];\n\n            require(song.upvotes[msg.sender].index > 0, \"you don't have any tokens stored in this song\");\n\n            uint totalWithdrawable = getWithdrawableAmount(msg.sender, cid);\n            uint alreadyWithdrawn = song.upvotes[msg.sender].withdrawnAmount;\n            uint amountToWithdraw = totalWithdrawable - alreadyWithdrawn;\n\n            require(song.currentUpvotes >= amountToWithdraw, \"calculated withdrawal amount is greater than remaining token supply for this song\");\n\n            song.upvotes[msg.sender].withdrawnAmount = totalWithdrawable;\n\n            song.currentUpvotes -= amountToWithdraw;\n            balanceOf[msg.sender] += amountToWithdraw;\n\n            emit Withdrawal(msg.sender, cid, amountToWithdraw);\n        }\n    }\n\n    //\n    // Getters\n    //\n\n    function getWithdrawableAmount(address user, bytes32 cid) public view returns (uint) {\n        Song storage song = songs[cid];\n\n        if (song.upvotes[user].index == 0) {\n            return 0;\n        }\n\n        if (payoutCurve == PayoutCurve.Linear) {\n            uint i = song.upvotes[user].index - 1;\n            uint t = song.allTimeUpvotes;\n            return (((uint(-2) * i) - 1) / t) + 2;\n\n        } else if (payoutCurve == PayoutCurve.Reciprocal) {\n            uint i = song.upvotes[user].index - 1;\n            int128 t = div(toReal(int88(song.allTimeUpvotes)), toReal(int88(10**DECIMALS)));\n            int128 t_2 = ipow(t, 2);\n\n            int128 a = ln(toReal(int88((i+2)**2)));\n            int128 b = ln(toReal(int88((i+1)**2)));\n            int128 c = ln(toReal(1) + t);\n\n            int128 numerator   = mul(t_2, a) - mul(t_2, b) + mul(t, a) - mul(t, b) - mul(toReal(2), t);\n            int128 denominator = mul(toReal(2), c + mul(t, toReal(-1)+c));\n            int128 amount = div(numerator, denominator);\n            amount = mul(amount, toReal(int88(10**DECIMALS)));\n            return uint(fromReal(amount));\n\n        } else {\n            revert(\"unknown payout curve\");\n        }\n    }\n\n    function getWithdrawableAmountRemaining(address user, bytes32 cid) public view returns (uint) {\n        return getWithdrawableAmount(user, cid) - getWithdrawnAmount(user, cid);\n    }\n\n    function getWithdrawnAmount(address user, bytes32 cid) public view returns (uint) {\n        return songs[cid].upvotes[user].withdrawnAmount;\n    }\n\n    function getCurrentUpvotes(bytes32 cid) public view returns (uint) {\n        return songs[cid].currentUpvotes;\n    }\n\n    function getAllTimeUpvotes(bytes32 cid) public view returns (uint) {\n        return songs[cid].allTimeUpvotes;\n    }\n\n    function getNumUpvoters(bytes32 cid) public view returns (uint) {\n        return songs[cid].numUpvoters;\n    }\n\n    function getUpvoteIndex(bytes32 cid, address user) public view returns (uint) {\n        return songs[cid].upvotes[user].index;\n    }\n\n    function getSongScore(bytes32 cid) public view returns (uint) {\n        Song storage song = songs[cid];\n        require(song.numUpvoters > 0, \"song doesn't exist\");\n\n        uint delta = block.number - song.submittedInBlock;\n        // @@TODO: this way of calculating decay is completely arbitrary\n        return song.allTimeUpvotes / (delta + 1);\n    }\n}\n\n",
  "sourcePath": "/home/bryn/projects/ujo/contracts-curation/contracts/Chart.sol",
  "compiler": {
    "name": "solc",
    "version": "0.5.8+commit.23d335f2.Emscripten.clang"
  },
  "schemaVersion": "3.0.9",
  "updatedAt": "2019-06-06T04:40:04.032Z",
  "devdoc": {
    "methods": {}
  },
  "userdoc": {
    "methods": {
      "abs(int128)": {
        "notice": "Get the absolute value of a real. Just the same as abs on a normal int128."
      },
      "atan2(int128,int128)": {
        "notice": "Compute the nice two-component arctangent of y/x."
      },
      "atanSmall(int128)": {
        "notice": "Calculate atan(x) for x in [-1, 1]. Uses the Chebyshev polynomial approach presented at https://www.mathworks.com/help/fixedpoint/examples/calculate-fixed-point-arctangent.html Uses polynomials received by personal communication. 0.999974x-0.332568x^3+0.193235x^5-0.115729x^7+0.0519505x^9-0.0114658x^11"
      },
      "cos(int128)": {
        "notice": "Calculate cos(x)."
      },
      "div(int128,int128)": {
        "notice": "Divide one real by another real. Truncates overflows."
      },
      "exp(int128)": {
        "notice": "Calculate e^x with a sensible maximum iteration count to wait until convergence. Note that it is potentially possible to get an un-converged value; lack of convergence does not throw."
      },
      "expLimited(int128,int256)": {
        "notice": "Calculate e^x. Uses the series given at <http://pages.mtu.edu/~shene/COURSES/cs201/NOTES/chap04/exp.html>.     * Lets you artificially limit the number of iterations.     * Note that it is potentially possible to get an un-converged value; lack of convergence does not throw."
      },
      "fpart(int128)": {
        "notice": "Get the fractional part of a real, as a real. Ignores sign (so fpart(-0.5) is 0.5)."
      },
      "fpartSigned(int128)": {
        "notice": "Get the fractional part of a real, as a real. Respects sign (so fpartSigned(-0.5) is -0.5)."
      },
      "fraction(int88,int88)": {
        "notice": "Create a real from a rational fraction."
      },
      "fractionalBits(int128)": {
        "notice": "Returns the fractional bits of a real. Ignores the sign of the real."
      },
      "fromReal(int128)": {
        "notice": "Convert a real to an integer. Preserves sign."
      },
      "ipart(int128)": {
        "notice": "Get the integer part of a fixed point value."
      },
      "ipow(int128,int88)": {
        "notice": "Raise a number to a positive integer power in O(log power) time. See <https://stackoverflow.com/a/101613>"
      },
      "ln(int128)": {
        "notice": "Calculate a natural logarithm with a sensible maximum iteration count to wait until convergence. Note that it is potentially possible to get an un-converged value; lack of convergence does not throw."
      },
      "lnLimited(int128,int256)": {
        "notice": "Calculate the natural log of a number. Rescales the input value and uses the algorithm outlined at <https://math.stackexchange.com/a/977836> and the ipow implementation.     * Lets you artificially limit the number of iterations.     * Note that it is potentially possible to get an un-converged value; lack of convergence does not throw."
      },
      "mul(int128,int128)": {
        "notice": "Multiply one real by another. Truncates overflows."
      },
      "pow(int128,int128)": {
        "notice": "Raise any number to any power, except for negative bases to fractional powers."
      },
      "round(int128)": {
        "notice": "Round a real to the nearest integral real value."
      },
      "sin(int128)": {
        "notice": "Calculate sin(x) with a sensible maximum iteration count to wait until convergence."
      },
      "sinLimited(int128,int88)": {
        "notice": "Compute the sin of a number to a certain number of Taylor series terms."
      },
      "sqrt(int128)": {
        "notice": "Compute the square root of a number."
      },
      "tan(int128)": {
        "notice": "Calculate tan(x). May overflow for large results. May throw if tan(x) would be infinite, or return an approximation, or overflow."
      },
      "toReal(int88)": {
        "notice": "Convert an integer to a real. Preserves sign."
      }
    }
  }
}