{
  "contractName": "Chart",
  "abi": [
    {
      "constant": true,
      "inputs": [
        {
          "name": "real_base",
          "type": "int128"
        },
        {
          "name": "exponent",
          "type": "int88"
        }
      ],
      "name": "ipow",
      "outputs": [
        {
          "name": "",
          "type": "int128"
        }
      ],
      "payable": false,
      "stateMutability": "pure",
      "type": "function"
    },
    {
      "constant": true,
      "inputs": [
        {
          "name": "real_value",
          "type": "int128"
        }
      ],
      "name": "fromReal",
      "outputs": [
        {
          "name": "",
          "type": "int88"
        }
      ],
      "payable": false,
      "stateMutability": "pure",
      "type": "function"
    },
    {
      "constant": true,
      "inputs": [
        {
          "name": "numerator",
          "type": "int88"
        },
        {
          "name": "denominator",
          "type": "int88"
        }
      ],
      "name": "fraction",
      "outputs": [
        {
          "name": "",
          "type": "int128"
        }
      ],
      "payable": false,
      "stateMutability": "pure",
      "type": "function"
    },
    {
      "constant": true,
      "inputs": [],
      "name": "payoutCurve",
      "outputs": [
        {
          "name": "",
          "type": "uint8"
        }
      ],
      "payable": false,
      "stateMutability": "view",
      "type": "function"
    },
    {
      "constant": true,
      "inputs": [
        {
          "name": "real_numerator",
          "type": "int128"
        },
        {
          "name": "real_denominator",
          "type": "int128"
        }
      ],
      "name": "div",
      "outputs": [
        {
          "name": "",
          "type": "int128"
        }
      ],
      "payable": false,
      "stateMutability": "pure",
      "type": "function"
    },
    {
      "constant": true,
      "inputs": [
        {
          "name": "real_value",
          "type": "int128"
        }
      ],
      "name": "fpartSigned",
      "outputs": [
        {
          "name": "",
          "type": "int128"
        }
      ],
      "payable": false,
      "stateMutability": "pure",
      "type": "function"
    },
    {
      "constant": true,
      "inputs": [
        {
          "name": "real_arg",
          "type": "int128"
        }
      ],
      "name": "atanSmall",
      "outputs": [
        {
          "name": "",
          "type": "int128"
        }
      ],
      "payable": false,
      "stateMutability": "pure",
      "type": "function"
    },
    {
      "constant": true,
      "inputs": [],
      "name": "DECIMALS",
      "outputs": [
        {
          "name": "",
          "type": "uint256"
        }
      ],
      "payable": false,
      "stateMutability": "view",
      "type": "function"
    },
    {
      "constant": true,
      "inputs": [
        {
          "name": "",
          "type": "bytes32"
        }
      ],
      "name": "songs",
      "outputs": [
        {
          "name": "submittedInBlock",
          "type": "uint256"
        },
        {
          "name": "currentUpvotes",
          "type": "uint256"
        },
        {
          "name": "allTimeUpvotes",
          "type": "uint256"
        },
        {
          "name": "numUpvoters",
          "type": "uint256"
        }
      ],
      "payable": false,
      "stateMutability": "view",
      "type": "function"
    },
    {
      "constant": true,
      "inputs": [
        {
          "name": "real_arg",
          "type": "int128"
        },
        {
          "name": "max_iterations",
          "type": "int88"
        }
      ],
      "name": "sinLimited",
      "outputs": [
        {
          "name": "",
          "type": "int128"
        }
      ],
      "payable": false,
      "stateMutability": "pure",
      "type": "function"
    },
    {
      "constant": true,
      "inputs": [
        {
          "name": "real_base",
          "type": "int128"
        },
        {
          "name": "real_exponent",
          "type": "int128"
        }
      ],
      "name": "pow",
      "outputs": [
        {
          "name": "",
          "type": "int128"
        }
      ],
      "payable": false,
      "stateMutability": "pure",
      "type": "function"
    },
    {
      "constant": true,
      "inputs": [
        {
          "name": "real_y",
          "type": "int128"
        },
        {
          "name": "real_x",
          "type": "int128"
        }
      ],
      "name": "atan2",
      "outputs": [
        {
          "name": "",
          "type": "int128"
        }
      ],
      "payable": false,
      "stateMutability": "pure",
      "type": "function"
    },
    {
      "constant": true,
      "inputs": [
        {
          "name": "real_arg",
          "type": "int128"
        }
      ],
      "name": "sqrt",
      "outputs": [
        {
          "name": "",
          "type": "int128"
        }
      ],
      "payable": false,
      "stateMutability": "pure",
      "type": "function"
    },
    {
      "constant": true,
      "inputs": [
        {
          "name": "",
          "type": "address"
        }
      ],
      "name": "balanceOf",
      "outputs": [
        {
          "name": "",
          "type": "uint256"
        }
      ],
      "payable": false,
      "stateMutability": "view",
      "type": "function"
    },
    {
      "constant": true,
      "inputs": [
        {
          "name": "real_arg",
          "type": "int128"
        },
        {
          "name": "max_iterations",
          "type": "int256"
        }
      ],
      "name": "lnLimited",
      "outputs": [
        {
          "name": "",
          "type": "int128"
        }
      ],
      "payable": false,
      "stateMutability": "pure",
      "type": "function"
    },
    {
      "constant": true,
      "inputs": [
        {
          "name": "real_value",
          "type": "int128"
        }
      ],
      "name": "fpart",
      "outputs": [
        {
          "name": "",
          "type": "int128"
        }
      ],
      "payable": false,
      "stateMutability": "pure",
      "type": "function"
    },
    {
      "constant": true,
      "inputs": [
        {
          "name": "",
          "type": "address"
        }
      ],
      "name": "receivedTokenGrant",
      "outputs": [
        {
          "name": "",
          "type": "bool"
        }
      ],
      "payable": false,
      "stateMutability": "view",
      "type": "function"
    },
    {
      "constant": true,
      "inputs": [
        {
          "name": "real_arg",
          "type": "int128"
        },
        {
          "name": "max_iterations",
          "type": "int256"
        }
      ],
      "name": "expLimited",
      "outputs": [
        {
          "name": "",
          "type": "int128"
        }
      ],
      "payable": false,
      "stateMutability": "pure",
      "type": "function"
    },
    {
      "constant": true,
      "inputs": [
        {
          "name": "real_value",
          "type": "int128"
        }
      ],
      "name": "ipart",
      "outputs": [
        {
          "name": "",
          "type": "int128"
        }
      ],
      "payable": false,
      "stateMutability": "pure",
      "type": "function"
    },
    {
      "constant": true,
      "inputs": [
        {
          "name": "real_arg",
          "type": "int128"
        }
      ],
      "name": "cos",
      "outputs": [
        {
          "name": "",
          "type": "int128"
        }
      ],
      "payable": false,
      "stateMutability": "pure",
      "type": "function"
    },
    {
      "constant": true,
      "inputs": [
        {
          "name": "real_arg",
          "type": "int128"
        }
      ],
      "name": "exp",
      "outputs": [
        {
          "name": "",
          "type": "int128"
        }
      ],
      "payable": false,
      "stateMutability": "pure",
      "type": "function"
    },
    {
      "constant": true,
      "inputs": [
        {
          "name": "real_value",
          "type": "int128"
        }
      ],
      "name": "fractionalBits",
      "outputs": [
        {
          "name": "",
          "type": "uint40"
        }
      ],
      "payable": false,
      "stateMutability": "pure",
      "type": "function"
    },
    {
      "constant": true,
      "inputs": [
        {
          "name": "real_arg",
          "type": "int128"
        }
      ],
      "name": "sin",
      "outputs": [
        {
          "name": "",
          "type": "int128"
        }
      ],
      "payable": false,
      "stateMutability": "pure",
      "type": "function"
    },
    {
      "constant": true,
      "inputs": [
        {
          "name": "real_a",
          "type": "int128"
        },
        {
          "name": "real_b",
          "type": "int128"
        }
      ],
      "name": "mul",
      "outputs": [
        {
          "name": "",
          "type": "int128"
        }
      ],
      "payable": false,
      "stateMutability": "pure",
      "type": "function"
    },
    {
      "constant": true,
      "inputs": [
        {
          "name": "real_value",
          "type": "int128"
        }
      ],
      "name": "round",
      "outputs": [
        {
          "name": "",
          "type": "int128"
        }
      ],
      "payable": false,
      "stateMutability": "pure",
      "type": "function"
    },
    {
      "constant": true,
      "inputs": [],
      "name": "tokenGrantSize",
      "outputs": [
        {
          "name": "",
          "type": "uint256"
        }
      ],
      "payable": false,
      "stateMutability": "view",
      "type": "function"
    },
    {
      "constant": true,
      "inputs": [
        {
          "name": "real_arg",
          "type": "int128"
        }
      ],
      "name": "ln",
      "outputs": [
        {
          "name": "",
          "type": "int128"
        }
      ],
      "payable": false,
      "stateMutability": "pure",
      "type": "function"
    },
    {
      "constant": true,
      "inputs": [
        {
          "name": "real_value",
          "type": "int128"
        }
      ],
      "name": "abs",
      "outputs": [
        {
          "name": "",
          "type": "int128"
        }
      ],
      "payable": false,
      "stateMutability": "pure",
      "type": "function"
    },
    {
      "constant": true,
      "inputs": [],
      "name": "proposalCost",
      "outputs": [
        {
          "name": "",
          "type": "uint256"
        }
      ],
      "payable": false,
      "stateMutability": "view",
      "type": "function"
    },
    {
      "constant": true,
      "inputs": [],
      "name": "upvoteCost",
      "outputs": [
        {
          "name": "",
          "type": "uint256"
        }
      ],
      "payable": false,
      "stateMutability": "view",
      "type": "function"
    },
    {
      "constant": true,
      "inputs": [
        {
          "name": "real_arg",
          "type": "int128"
        }
      ],
      "name": "tan",
      "outputs": [
        {
          "name": "",
          "type": "int128"
        }
      ],
      "payable": false,
      "stateMutability": "pure",
      "type": "function"
    },
    {
      "constant": true,
      "inputs": [
        {
          "name": "ipart",
          "type": "int88"
        }
      ],
      "name": "toReal",
      "outputs": [
        {
          "name": "",
          "type": "int128"
        }
      ],
      "payable": false,
      "stateMutability": "pure",
      "type": "function"
    },
    {
      "inputs": [
        {
          "name": "_payoutCurve",
          "type": "uint8"
        },
        {
          "name": "_proposalCost",
          "type": "uint256"
        }
      ],
      "payable": false,
      "stateMutability": "nonpayable",
      "type": "constructor"
    },
    {
      "anonymous": false,
      "inputs": [
        {
          "indexed": true,
          "name": "proposer",
          "type": "address"
        },
        {
          "indexed": false,
          "name": "cid",
          "type": "bytes32"
        }
      ],
      "name": "SongProposed",
      "type": "event"
    },
    {
      "anonymous": false,
      "inputs": [
        {
          "indexed": true,
          "name": "upvoter",
          "type": "address"
        },
        {
          "indexed": false,
          "name": "cid",
          "type": "bytes32"
        }
      ],
      "name": "SongUpvoted",
      "type": "event"
    },
    {
      "constant": false,
      "inputs": [
        {
          "name": "cid",
          "type": "bytes32"
        }
      ],
      "name": "propose",
      "outputs": [],
      "payable": false,
      "stateMutability": "nonpayable",
      "type": "function"
    },
    {
      "constant": false,
      "inputs": [
        {
          "name": "cid",
          "type": "bytes32"
        }
      ],
      "name": "upvote",
      "outputs": [],
      "payable": false,
      "stateMutability": "nonpayable",
      "type": "function"
    },
    {
      "constant": false,
      "inputs": [
        {
          "name": "cids",
          "type": "bytes32[]"
        }
      ],
      "name": "withdraw",
      "outputs": [],
      "payable": false,
      "stateMutability": "nonpayable",
      "type": "function"
    },
    {
      "constant": true,
      "inputs": [
        {
          "name": "user",
          "type": "address"
        },
        {
          "name": "cid",
          "type": "bytes32"
        }
      ],
      "name": "getWithdrawableAmount",
      "outputs": [
        {
          "name": "",
          "type": "uint256"
        }
      ],
      "payable": false,
      "stateMutability": "view",
      "type": "function"
    },
    {
      "constant": true,
      "inputs": [
        {
          "name": "cid",
          "type": "bytes32"
        }
      ],
      "name": "getCurrentUpvotes",
      "outputs": [
        {
          "name": "",
          "type": "uint256"
        }
      ],
      "payable": false,
      "stateMutability": "view",
      "type": "function"
    },
    {
      "constant": true,
      "inputs": [
        {
          "name": "cid",
          "type": "bytes32"
        }
      ],
      "name": "getAllTimeUpvotes",
      "outputs": [
        {
          "name": "",
          "type": "uint256"
        }
      ],
      "payable": false,
      "stateMutability": "view",
      "type": "function"
    },
    {
      "constant": true,
      "inputs": [
        {
          "name": "cid",
          "type": "bytes32"
        }
      ],
      "name": "getNumUpvoters",
      "outputs": [
        {
          "name": "",
          "type": "uint256"
        }
      ],
      "payable": false,
      "stateMutability": "view",
      "type": "function"
    },
    {
      "constant": true,
      "inputs": [
        {
          "name": "cid",
          "type": "bytes32"
        },
        {
          "name": "user",
          "type": "address"
        }
      ],
      "name": "getUpvoteIndex",
      "outputs": [
        {
          "name": "",
          "type": "uint256"
        }
      ],
      "payable": false,
      "stateMutability": "view",
      "type": "function"
    },
    {
      "constant": true,
      "inputs": [
        {
          "name": "cid",
          "type": "bytes32"
        }
      ],
      "name": "getSongScore",
      "outputs": [
        {
          "name": "",
          "type": "uint256"
        }
      ],
      "payable": false,
      "stateMutability": "view",
      "type": "function"
    }
  ],
  "bytecode": "0x60806040526006600a0a6001026002556006600a0a60640260065534801561002657600080fd5b50604051604080612b218339810180604052604081101561004657600080fd5b810190808051906020019092919080519060200190929190505050816000806101000a81548160ff0219169083600181111561007e57fe5b02179055506006600a0a81026001819055505050612a80806100a16000396000f3fe608060405234801561001057600080fd5b50600436106102535760003560e01c806384f1bd4e11610146578063b6972146116100c3578063e664f3b211610087578063e664f3b214610c9a578063ee95d14114610cb8578063f0033b4314610cd6578063f5a5d50314610d21578063fe2b392414610d6c578063fe2e355314610e2457610253565b8063b697214614610b43578063bf93961c14610b9b578063c1d42a9414610be6578063d271b06714610c04578063e01e92d214610c4f57610253565b8063a5b1f44d1161010a578063a5b1f44d146109e1578063a807adca14610a0f578063b0cbaab214610a5a578063b28332d314610aa5578063b475396c14610af857610253565b806384f1bd4e1461086c5780638fd0a3ba146108b757806392aea05a14610913578063935f43b21461096857806399882cdb146109b357610253565b80633095ff4e116101d45780636e3daae4116101985780636e3daae4146106d057806370a082311461071b57806371465c2a1461077357806380847975146107b557806382396bc61461081757610253565b80633095ff4e1461052f5780633e2f55ca146105865780634672f555146105de578063502126431461063657806367179ffb1461067857610253565b80631f8a74fa1161021b5780631f8a74fa146103e157806325f39a63146104235780632a6636861461047b5780632d8e0c9b146104c65780632e0f26251461051157610253565b8063082ec5561461025857806315dbfe28146102b05780631dade0d4146102fb5780631dfbeb29146103535780631e9a26b4146103b5575b600080fd5b6102946004803603604081101561026e57600080fd5b810190808035600f0b90602001909291908035600a0b9060200190929190505050610e66565b6040518082600f0b600f0b815260200191505060405180910390f35b6102df600480360360208110156102c657600080fd5b810190808035600f0b9060200190929190505050610f45565b6040518082600a0b600a0b815260200191505060405180910390f35b6103376004803603604081101561031157600080fd5b810190808035600a0b90602001909291908035600a0b9060200190929190505050610f71565b6040518082600f0b600f0b815260200191505060405180910390f35b61039f6004803603604081101561036957600080fd5b8101908080359060200190929190803573ffffffffffffffffffffffffffffffffffffffff169060200190929190505050610f95565b6040518082815260200191505060405180910390f35b6103bd610ff6565b604051808260018111156103cd57fe5b60ff16815260200191505060405180910390f35b61040d600480360360208110156103f757600080fd5b8101908080359060200190929190505050611008565b6040518082815260200191505060405180910390f35b61045f6004803603604081101561043957600080fd5b810190808035600f0b90602001909291908035600f0b9060200190929190505050611028565b6040518082600f0b600f0b815260200191505060405180910390f35b6104aa6004803603602081101561049157600080fd5b810190808035600f0b906020019092919050505061105a565b6040518082600f0b600f0b815260200191505060405180910390f35b6104f5600480360360208110156104dc57600080fd5b810190808035600f0b906020019092919050505061108a565b6040518082600f0b600f0b815260200191505060405180910390f35b61051961111b565b6040518082815260200191505060405180910390f35b61055b6004803603602081101561054557600080fd5b8101908080359060200190929190505050611120565b6040518085815260200184815260200183815260200182815260200194505050505060405180910390f35b6105c26004803603604081101561059c57600080fd5b810190808035600f0b90602001909291908035600a0b9060200190929190505050611150565b6040518082600f0b600f0b815260200191505060405180910390f35b61061a600480360360408110156105f457600080fd5b810190808035600f0b90602001909291908035600f0b9060200190929190505050611201565b6040518082600f0b600f0b815260200191505060405180910390f35b6106626004803603602081101561064c57600080fd5b81019080803590602001909291905050506113a9565b6040518082815260200191505060405180910390f35b6106b46004803603604081101561068e57600080fd5b810190808035600f0b90602001909291908035600f0b90602001909291905050506113c9565b6040518082600f0b600f0b815260200191505060405180910390f35b6106ff600480360360208110156106e657600080fd5b810190808035600f0b9060200190929190505050611483565b6040518082600f0b600f0b815260200191505060405180910390f35b61075d6004803603602081101561073157600080fd5b81019080803573ffffffffffffffffffffffffffffffffffffffff1690602001909291905050506114b0565b6040518082815260200191505060405180910390f35b61079f6004803603602081101561078957600080fd5b81019080803590602001909291905050506114c8565b6040518082815260200191505060405180910390f35b610801600480360360408110156107cb57600080fd5b81019080803573ffffffffffffffffffffffffffffffffffffffff1690602001909291908035906020019092919050505061157f565b6040518082815260200191505060405180910390f35b6108506004803603604081101561082d57600080fd5b810190808035600f0b9060200190929190803590602001909291905050506118ec565b6040518082600f0b600f0b815260200191505060405180910390f35b61089b6004803603602081101561088257600080fd5b810190808035600f0b9060200190929190505050611a8f565b6040518082600f0b600f0b815260200191505060405180910390f35b6108f9600480360360208110156108cd57600080fd5b81019080803573ffffffffffffffffffffffffffffffffffffffff169060200190929190505050611ac3565b604051808215151515815260200191505060405180910390f35b61094c6004803603604081101561092957600080fd5b810190808035600f0b906020019092919080359060200190929190505050611ae3565b6040518082600f0b600f0b815260200191505060405180910390f35b6109976004803603602081101561097e57600080fd5b810190808035600f0b9060200190929190505050611b62565b6040518082600f0b600f0b815260200191505060405180910390f35b6109df600480360360208110156109c957600080fd5b8101908080359060200190929190505050611b76565b005b610a0d600480360360208110156109f757600080fd5b8101908080359060200190929190505050611f04565b005b610a3e60048036036020811015610a2557600080fd5b810190808035600f0b906020019092919050505061229a565b6040518082600f0b600f0b815260200191505060405180910390f35b610a8960048036036020811015610a7057600080fd5b810190808035600f0b90602001909291905050506122b4565b6040518082600f0b600f0b815260200191505060405180910390f35b610ad460048036036020811015610abb57600080fd5b810190808035600f0b90602001909291905050506122c8565b604051808264ffffffffff1664ffffffffff16815260200191505060405180910390f35b610b2760048036036020811015610b0e57600080fd5b810190808035600f0b90602001909291905050506122fc565b6040518082600f0b600f0b815260200191505060405180910390f35b610b7f60048036036040811015610b5957600080fd5b810190808035600f0b90602001909291908035600f0b9060200190929190505050612310565b6040518082600f0b600f0b815260200191505060405180910390f35b610bca60048036036020811015610bb157600080fd5b810190808035600f0b9060200190929190505050612332565b6040518082600f0b600f0b815260200191505060405180910390f35b610bee6123a7565b6040518082815260200191505060405180910390f35b610c3360048036036020811015610c1a57600080fd5b810190808035600f0b90602001909291905050506123ad565b6040518082600f0b600f0b815260200191505060405180910390f35b610c7e60048036036020811015610c6557600080fd5b810190808035600f0b90602001909291905050506123c1565b6040518082600f0b600f0b815260200191505060405180910390f35b610ca26123e2565b6040518082815260200191505060405180910390f35b610cc06123e8565b6040518082815260200191505060405180910390f35b610d0560048036036020811015610cec57600080fd5b810190808035600f0b90602001909291905050506123ee565b6040518082600f0b600f0b815260200191505060405180910390f35b610d5060048036036020811015610d3757600080fd5b810190808035600a0b9060200190929190505050612411565b6040518082600f0b600f0b815260200191505060405180910390f35b610e2260048036036020811015610d8257600080fd5b8101908080359060200190640100000000811115610d9f57600080fd5b820183602082011115610db157600080fd5b80359060200191846020830284011164010000000083111715610dd357600080fd5b919080806020026020016040519081016040528093929190818152602001838360200280828437600081840152601f19601f820116905080830192505050505050509192919290505050612433565b005b610e5060048036036020811015610e3a57600080fd5b8101908080359060200190929190505050612687565b6040518082815260200191505060405180910390f35b60008082600a0b1215610ee1576040517f08c379a000000000000000000000000000000000000000000000000000000000815260040180806020018281038252601b8152602001807f69706f773a206578706f6e656e74206d757374206265203e3d2030000000000081525060200191505060405180910390fd5b600060286001600f0b6000821215610ef557fe5b901b90505b600083600a0b14610f3b576001808416600a0b1415610f2057610f1d8185612310565b90505b600183600a0b901d9250610f348485612310565b9350610efa565b8091505092915050565b600060286001600f0b6000821215610f5957fe5b901b600f0b82600f0b81610f6957fe5b059050919050565b6000610f8d610f7f84612411565b610f8884612411565b611028565b905092915050565b60006003600084815260200190815260200160002060040160008373ffffffffffffffffffffffffffffffffffffffff1673ffffffffffffffffffffffffffffffffffffffff16815260200190815260200160002060000154905092915050565b6000809054906101000a900460ff1681565b600060036000838152602001908152602001600020600301549050919050565b600081600f0b60286001600f0b600082121561104057fe5b901b600f0b84600f0b028161105157fe5b05905092915050565b60008061106683611a8f565b9050600083600f0b12156110805780600003915050611085565b809150505b919050565b6000806110978384612310565b905061111364fffe4bcada61110c6455232d2bb2611105643177d955716110fe641da06a6e336110f7640d4ca0c2836110f07ffffffffffffffffffffffffffffffffffffffffffffffffffffffffd1093cbfa8c612310565b018a612310565b0388612310565b0186612310565b0384612310565b0184612310565b915050919050565b600681565b60036020528060005260406000206000915090508060000154908060010154908060020154908060030154905084565b60006506487ed5110b600f0b83600f0b8161116757fe5b079250600060286001600f0b600082121561117e57fe5b901b905060006001840390505b600081600a0b126111ed576111c86111c26111a68788612310565b6111bd600385600202016002866002020102612411565b611028565b83612310565b60286001600f0b60008212156111da57fe5b901b03915080806001900391505061118b565b506111f88482612310565b91505092915050565b60008082600f0b14156112295760286001600f0b600082121561122057fe5b901b90506113a3565b600083600f0b141561129b57600082600f0b1215611292576040517f08c379a0000000000000000000000000000000000000000000000000000000008152600401808060200182810382526031815260200180612a026031913960400191505060405180910390fd5b600090506113a3565b60006112a683611a8f565b600f0b141561130c57600082600f0b13156112d4576112cd836112c884610f45565b610e66565b90506113a3565b61130560286001600f0b60008212156112e957fe5b901b611300856112fb86600003610f45565b610e66565b611028565b90506113a3565b600083600f0b1215611386576040517f08c379a000000000000000000000000000000000000000000000000000000000815260040180806020018281038252601b8152602001807f706f773a207265616c5f62617365206d757374206265203e3d2030000000000081525060200191505060405180910390fd5b6113a061139b83611396866123ad565b612310565b6122b4565b90505b92915050565b600060036000838152602001908152602001600020600101549050919050565b60008060006113d7846123c1565b905060006113e4866123c1565b905080600f0b82600f0b131561140d576114066114018284611028565b61108a565b925061142a565b61141f61141a8383611028565b61108a565b6501921fb544430392505b600085600f0b121561146357600086600f0b1215611452576503243f6a88868303925061145e565b826503243f6a88860392505b611477565b600086600f0b1215611476578260000392505b5b82935050505092915050565b60006114a982600160286001600f0b600082121561149d57fe5b901b600f0b901d611201565b9050919050565b60046020528060005260406000206000915090505481565b600080600360008481526020019081526020016000209050600081600301541161155a576040517f08c379a00000000000000000000000000000000000000000000000000000000081526004018080602001828103825260128152602001807f736f6e6720646f65736e2774206578697374000000000000000000000000000081525060200191505060405180910390fd5b60008160000154430390506001810182600201548161157557fe5b0492505050919050565b60008060036000848152602001908152602001600020905060008160040160008673ffffffffffffffffffffffffffffffffffffffff1673ffffffffffffffffffffffffffffffffffffffff1681526020019081526020016000206000015414156115ee5760009150506118e6565b600060018111156115fb57fe5b6000809054906101000a900460ff16600181111561161557fe5b14156116ac57600060018260040160008773ffffffffffffffffffffffffffffffffffffffff1673ffffffffffffffffffffffffffffffffffffffff168152602001908152602001600020600001540390506000826002015490506002816001847ffffffffffffffffffffffffffffffffffffffffffffffffffffffffffffffffe0203816116a057fe5b040193505050506118e6565b6001808111156116b857fe5b6000809054906101000a900460ff1660018111156116d257fe5b141561187857600060018260040160008773ffffffffffffffffffffffffffffffffffffffff1673ffffffffffffffffffffffffffffffffffffffff1681526020019081526020016000206000015403905060006117486117368460020154612411565b6117436006600a0a612411565b611028565b90506000611757826002610e66565b9050600061177161176c60028087010a612411565b6123ad565b9050600061178c6117876002600188010a612411565b6123ad565b905060006117a48561179e6001612411565b016123ad565b905060006117bb6117b56002612411565b87612310565b6117c58785612310565b6117cf8887612310565b6117d98887612310565b6117e38989612310565b03010303905060006118336117f86002612411565b61182c89866118267fffffffffffffffffffffffffffffffffffffffffffffffffffffffffffffffff612411565b01612310565b8501612310565b905060006118418383611028565b9050611859816118546006600a0a612411565b612310565b905061186481610f45565b600a0b9a50505050505050505050506118e6565b6040517f08c379a00000000000000000000000000000000000000000000000000000000081526004018080602001828103825260148152602001807f756e6b6e6f776e207061796f757420637572766500000000000000000000000081525060200191505060405180910390fd5b92915050565b60008083600f0b13611966576040517f08c379a000000000000000000000000000000000000000000000000000000000815260040180806020018281038252601f8152602001807f6c6e4c696d697465643a207265616c5f617267206d757374206265203e20300081525060200191505060405180910390fd5b60286001600f0b600082121561197857fe5b901b600f0b83600f0b14156119905760009050611a89565b60008061199c856126a7565b809250819350505060006119da60286001600f0b60008212156119bb57fe5b901b840360286001600f0b60008212156119d157fe5b901b8501611028565b9050600080905060008090505b8681600a0b1215611a42576000611a1b611a078560018560020201610e66565b611a1660018560020201612411565b611028565b90508083019250600081600f0b1415611a345750611a42565b5080806001019150506119e7565b50611a6781600160286001600f0b6000821215611a5b57fe5b901b600f0b901b612310565b905080611a81611a7685612411565b64b17217f7d2612310565b019450505050505b92915050565b600060286001600f0b6000821215611aa357fe5b901b600f0b611ab1836123c1565b600f0b81611abb57fe5b079050919050565b60056020528060005260406000206000915054906101000a900460ff1681565b60008060009050600060286001600f0b6000821215611afe57fe5b901b905060008090505b8481600a0b1215611b56578183019250611b3682611b3188611b2c60018601612411565b611028565b612310565b9150600082600f0b1415611b4957611b56565b8080600101915050611b08565b50819250505092915050565b6000611b6d8261105a565b82039050919050565b60001515600560003373ffffffffffffffffffffffffffffffffffffffff1673ffffffffffffffffffffffffffffffffffffffff16815260200190815260200160002060009054906101000a900460ff1615151415611c77576001600560003373ffffffffffffffffffffffffffffffffffffffff1673ffffffffffffffffffffffffffffffffffffffff16815260200190815260200160002060006101000a81548160ff021916908315150217905550600654600460003373ffffffffffffffffffffffffffffffffffffffff1673ffffffffffffffffffffffffffffffffffffffff168152602001908152602001600020600082825401925050819055505b6000600360008381526020019081526020016000206003015414611d03576040517f08c379a00000000000000000000000000000000000000000000000000000000081526004018080602001828103825260108152602001807f616c72656164792070726f706f7365640000000000000000000000000000000081525060200191505060405180910390fd5b600154600460003373ffffffffffffffffffffffffffffffffffffffff1673ffffffffffffffffffffffffffffffffffffffff168152602001908152602001600020541015611dba576040517f08c379a000000000000000000000000000000000000000000000000000000000815260040180806020018281038252601c8152602001807f6e6f7420656e6f75676820746f6b656e7320746f2070726f706f73650000000081525060200191505060405180910390fd5b6000600360008381526020019081526020016000209050438160000181905550600154600460003373ffffffffffffffffffffffffffffffffffffffff1673ffffffffffffffffffffffffffffffffffffffff1681526020019081526020016000206000828254039250508190555060015481600101600082825401925050819055506001548160020160008282540192505081905550806003016000815480929190600101919050555080600301548160040160003373ffffffffffffffffffffffffffffffffffffffff1673ffffffffffffffffffffffffffffffffffffffff168152602001908152602001600020600001819055503373ffffffffffffffffffffffffffffffffffffffff167f0cc60f2305b4ecf8346e50b80fb9a182172944130b812f15807a60e2144dde23836040518082815260200191505060405180910390a25050565b60001515600560003373ffffffffffffffffffffffffffffffffffffffff1673ffffffffffffffffffffffffffffffffffffffff16815260200190815260200160002060009054906101000a900460ff1615151415612005576001600560003373ffffffffffffffffffffffffffffffffffffffff1673ffffffffffffffffffffffffffffffffffffffff16815260200190815260200160002060006101000a81548160ff021916908315150217905550600654600460003373ffffffffffffffffffffffffffffffffffffffff1673ffffffffffffffffffffffffffffffffffffffff168152602001908152602001600020600082825401925050819055505b600254600460003373ffffffffffffffffffffffffffffffffffffffff1673ffffffffffffffffffffffffffffffffffffffff1681526020019081526020016000205410156120bc576040517f08c379a000000000000000000000000000000000000000000000000000000000815260040180806020018281038252601b8152602001807f6e6f7420656e6f75676820746f6b656e7320746f207570766f7465000000000081525060200191505060405180910390fd5b600254600460003373ffffffffffffffffffffffffffffffffffffffff1673ffffffffffffffffffffffffffffffffffffffff16815260200190815260200160002060008282540392505081905550600060036000838152602001908152602001600020905060008160040160003373ffffffffffffffffffffffffffffffffffffffff1673ffffffffffffffffffffffffffffffffffffffff16815260200190815260200160002060000154146121bf576040517f08c379a0000000000000000000000000000000000000000000000000000000008152600401808060200182810382526022815260200180612a336022913960400191505060405180910390fd5b60025481600101600082825401925050819055506002548160020160008282540192505081905550806003016000815480929190600101919050555080600301548160040160003373ffffffffffffffffffffffffffffffffffffffff1673ffffffffffffffffffffffffffffffffffffffff168152602001908152602001600020600001819055503373ffffffffffffffffffffffffffffffffffffffff167f2de08546c5799e0e3f192d9f4e611602fd254316e3e34a77742bbf7f296eacd8836040518082815260200191505060405180910390a25050565b60006122ad6501921fb5444383016122fc565b9050919050565b60006122c1826064611ae3565b9050919050565b600060286001600f0b60008212156122dc57fe5b901b600f0b6122ea836123c1565b600f0b816122f457fe5b079050919050565b600061230982600f611150565b9050919050565b6000602882600f0b84600f0b02600082121561232857fe5b901d905092915050565b60008061233e83610f45565b905060006001602803600164ffffffffff16600082121561235b57fe5b901b612366856122c8565b1664ffffffffff161115612396576000600f0b83600f0b121561238e57600181039050612395565b6001810190505b5b61239f81612411565b915050919050565b60065481565b60006123ba8260646118ec565b9050919050565b60008082600f0b13156123d6578190506123dd565b8160000390505b919050565b60015481565b60025481565b600061240a6123fc836122fc565b6124058461229a565b611028565b9050919050565b600060286001600f0b600082121561242557fe5b901b82600a0b029050919050565b60008090505b815181101561268357600082828151811061245057fe5b60200260200101519050600060036000838152602001908152602001600020905060008160040160003373ffffffffffffffffffffffffffffffffffffffff1673ffffffffffffffffffffffffffffffffffffffff168152602001908152602001600020600001541161250e576040517f08c379a000000000000000000000000000000000000000000000000000000000815260040180806020018281038252602d815260200180612984602d913960400191505060405180910390fd5b600061251a338461157f565b905060008260040160003373ffffffffffffffffffffffffffffffffffffffff1673ffffffffffffffffffffffffffffffffffffffff1681526020019081526020016000206001015490506000818303905080846001015410156125c9576040517f08c379a00000000000000000000000000000000000000000000000000000000081526004018080602001828103825260518152602001806129b16051913960600191505060405180910390fd5b828460040160003373ffffffffffffffffffffffffffffffffffffffff1673ffffffffffffffffffffffffffffffffffffffff1681526020019081526020016000206001018190555080846001016000828254039250508190555080600460003373ffffffffffffffffffffffffffffffffffffffff1673ffffffffffffffffffffffffffffffffffffffff1681526020019081526020016000206000828254019250508190555050505050508080600101915050612439565b5050565b600060036000838152602001908152602001600020600201549050919050565b600080600083600f0b13612723576040517f08c379a000000000000000000000000000000000000000000000000000000000815260040180806020018281038252601d8152602001807f72657363616c653a207265616c5f617267206d757374206265203e203000000081525060200191505060405180910390fd5b600061273961273485600f0b612799565b6127f1565b60ff169050602881039150600082600a0b121561276f5781600003600a0b84600f0b600082121561276657fe5b901b9250612793565b600082600a0b126127925781600a0b84600f0b600082121561278d57fe5b901d92505b5b50915091565b6000600182901c82179150600282901c82179150600482901c82179150600882901c82179150601082901c82179150602082901c82179150604082901c82179150608082901c82179150600182901c82189050919050565b600080905060007faaaaaaaaaaaaaaaaaaaaaaaaaaaaaaaaaaaaaaaaaaaaaaaaaaaaaaaaaaaaaaaa831614612827576001811790505b60007fcccccccccccccccccccccccccccccccccccccccccccccccccccccccccccccccc831614612858576002811790505b60007ff0f0f0f0f0f0f0f0f0f0f0f0f0f0f0f0f0f0f0f0f0f0f0f0f0f0f0f0f0f0f0f0831614612889576004811790505b60007fff00ff00ff00ff00ff00ff00ff00ff00ff00ff00ff00ff00ff00ff00ff00ff008316146128ba576008811790505b60007fffff0000ffff0000ffff0000ffff0000ffff0000ffff0000ffff0000ffff00008316146128eb576010811790505b60007fffffffff00000000ffffffff00000000ffffffff00000000ffffffff0000000083161461291c576020811790505b60007fffffffffffffffff0000000000000000ffffffffffffffff000000000000000083161461294d576040811790505b60007fffffffffffffffffffffffffffffffff0000000000000000000000000000000083161461297e576080811790505b91905056fe796f7520646f6e2774206861766520616e7920746f6b656e732073746f72656420696e207468697320736f6e6763616c63756c61746564207769746864726177616c20616d6f756e742069732067726561746572207468616e2072656d61696e696e6720746f6b656e20737570706c7920666f72207468697320736f6e67706f773a207265616c5f6578706f6e656e74206d757374206265203e3d2030206966207265616c5f62617365203d3d2030796f75206861766520616c7265616479207570766f746564207468697320736f6e67a165627a7a7230582035a5b4200411c4072adca665ca2b9c0ac0c530ca98447db0170abed762c65dad0029",
  "source": "pragma solidity 0.5.8;\n\nimport \"./RealMath.sol\";\n\ncontract Chart is RealMath\n{\n    uint public constant DECIMALS = 6;\n    PayoutCurve public payoutCurve;\n    uint public proposalCost;\n    uint public upvoteCost = 1 * (10 ** DECIMALS);\n\n    constructor(PayoutCurve _payoutCurve, uint _proposalCost) public {\n        payoutCurve = _payoutCurve;\n        proposalCost = _proposalCost * (10 ** DECIMALS);\n    }\n\n    enum PayoutCurve {\n        Linear,\n        Reciprocal\n    }\n\n    struct Song {\n        // Tracks the block when the song was initially submitted (to facilitate calculating a score that decays over time)\n        uint submittedInBlock;\n        // Tracks the number of tokenized votes not yet withdrawn from the song.  We use this to calculate withdrawable amounts.\n        uint currentUpvotes;\n        // Tracks the total number of tokenized votes this song has received.  We use this to rank songs.\n        uint allTimeUpvotes;\n        // Tracks the number of upvoters (!= allTimeUpvotes when upvoteCost != 1)\n        uint numUpvoters;\n        // Maps a user's address to their place in the \"queue\" of users who have upvoted this song.  Used to calculate withdrawable amounts.\n        mapping(address => Upvote) upvotes;\n    }\n\n    struct Upvote {\n        uint index; // 1-based index\n        uint withdrawnAmount;\n    }\n\n    mapping(bytes32 => Song) public songs;\n    mapping(address => uint) public balanceOf; // token balances\n\n    // This mapping tracks which addresses we've seen before.  If an address has never been seen, and\n    // its balance is 0, then it receives a token grant the first time it proposes or upvotes a song.\n    // This helps us prevent users from re-upping on tokens every time they hit a 0 balance.\n    mapping(address => bool) public receivedTokenGrant;\n    uint public tokenGrantSize = 100 * (10 ** DECIMALS);\n\n    //\n    // Events\n    //\n\n    event SongProposed(address indexed proposer, bytes32 cid);\n    event SongUpvoted(address indexed upvoter, bytes32 cid);\n\n    //\n    // Upvote mechanism\n    //\n\n    modifier maybeTokenGrant {\n        if (receivedTokenGrant[msg.sender] == false) {\n            receivedTokenGrant[msg.sender] = true;\n            balanceOf[msg.sender] += tokenGrantSize;\n        }\n        _;\n    }\n\n    function propose(bytes32 cid) maybeTokenGrant public {\n        require(songs[cid].numUpvoters == 0, \"already proposed\");\n        require(balanceOf[msg.sender] >= proposalCost, \"not enough tokens to propose\");\n\n        Song storage song = songs[cid];\n        song.submittedInBlock = block.number;\n\n        balanceOf[msg.sender] -= proposalCost;\n        song.currentUpvotes += proposalCost;\n        song.allTimeUpvotes += proposalCost;\n        song.numUpvoters++;\n        song.upvotes[msg.sender].index = song.numUpvoters;\n\n        emit SongProposed(msg.sender, cid);\n    }\n\n    function upvote(bytes32 cid) maybeTokenGrant public {\n        require(balanceOf[msg.sender] >= upvoteCost, \"not enough tokens to upvote\");\n        balanceOf[msg.sender] -= upvoteCost;\n\n        Song storage song = songs[cid];\n        require(song.upvotes[msg.sender].index == 0, \"you have already upvoted this song\");\n\n        song.currentUpvotes += upvoteCost;\n        song.allTimeUpvotes += upvoteCost;\n        song.numUpvoters++;\n        song.upvotes[msg.sender].index = song.numUpvoters;\n\n        emit SongUpvoted(msg.sender, cid);\n    }\n\n    function withdraw(bytes32[] memory cids) public {\n        for (uint i = 0; i < cids.length; i++) {\n            bytes32 cid = cids[i];\n\n            Song storage song = songs[cid];\n\n            require(song.upvotes[msg.sender].index > 0, \"you don't have any tokens stored in this song\");\n\n            uint totalWithdrawable = getWithdrawableAmount(msg.sender, cid);\n            uint alreadyWithdrawn = song.upvotes[msg.sender].withdrawnAmount;\n            uint amountToWithdraw = totalWithdrawable - alreadyWithdrawn;\n\n            require(song.currentUpvotes >= amountToWithdraw, \"calculated withdrawal amount is greater than remaining token supply for this song\");\n\n            song.upvotes[msg.sender].withdrawnAmount = totalWithdrawable;\n\n            song.currentUpvotes -= amountToWithdraw;\n            balanceOf[msg.sender] += amountToWithdraw;\n        }\n    }\n\n    //\n    // Getters\n    //\n\n    function getWithdrawableAmount(address user, bytes32 cid) public view returns (uint) {\n        Song storage song = songs[cid];\n\n        if (song.upvotes[user].index == 0) {\n            return 0;\n        }\n\n        if (payoutCurve == PayoutCurve.Linear) {\n            uint i = song.upvotes[user].index - 1;\n            uint t = song.allTimeUpvotes;\n            return (((uint(-2) * i) - 1) / t) + 2;\n\n        } else if (payoutCurve == PayoutCurve.Reciprocal) {\n            uint i = song.upvotes[user].index - 1;\n            int128 t = div(toReal(int88(song.allTimeUpvotes)), toReal(int88(10**DECIMALS)));\n            int128 t_2 = ipow(t, 2);\n\n            int128 a = ln(toReal(int88((i+2)**2)));\n            int128 b = ln(toReal(int88((i+1)**2)));\n            int128 c = ln(toReal(1) + t);\n\n            int128 numerator   = mul(t_2, a) - mul(t_2, b) + mul(t, a) - mul(t, b) - mul(toReal(2), t);\n            int128 denominator = mul(toReal(2), c + mul(t, toReal(-1)+c));\n            int128 amount = div(numerator, denominator);\n            amount = mul(amount, toReal(int88(10**DECIMALS)));\n            return uint(fromReal(amount));\n\n        } else {\n            revert(\"unknown payout curve\");\n        }\n    }\n\n    function getCurrentUpvotes(bytes32 cid) public view returns (uint) {\n        return songs[cid].currentUpvotes;\n    }\n\n    function getAllTimeUpvotes(bytes32 cid) public view returns (uint) {\n        return songs[cid].allTimeUpvotes;\n    }\n\n    function getNumUpvoters(bytes32 cid) public view returns (uint) {\n        return songs[cid].numUpvoters;\n    }\n\n    function getUpvoteIndex(bytes32 cid, address user) public view returns (uint) {\n        return songs[cid].upvotes[user].index;\n    }\n\n    function getSongScore(bytes32 cid) public view returns (uint) {\n        Song storage song = songs[cid];\n        require(song.numUpvoters > 0, \"song doesn't exist\");\n\n        uint delta = block.number - song.submittedInBlock;\n        // @@TODO: this way of calculating decay is completely arbitrary\n        return song.allTimeUpvotes / (delta + 1);\n    }\n}\n\n",
  "sourcePath": "/home/bryn/projects/ujo/contracts-curation/contracts/Chart.sol",
  "compiler": {
    "name": "solc",
    "version": "0.5.8+commit.23d335f2.Emscripten.clang"
  },
  "schemaVersion": "3.0.9",
  "updatedAt": "2019-06-01T02:04:04.348Z",
  "devdoc": {
    "methods": {}
  },
  "userdoc": {
    "methods": {
      "abs(int128)": {
        "notice": "Get the absolute value of a real. Just the same as abs on a normal int128."
      },
      "atan2(int128,int128)": {
        "notice": "Compute the nice two-component arctangent of y/x."
      },
      "atanSmall(int128)": {
        "notice": "Calculate atan(x) for x in [-1, 1]. Uses the Chebyshev polynomial approach presented at https://www.mathworks.com/help/fixedpoint/examples/calculate-fixed-point-arctangent.html Uses polynomials received by personal communication. 0.999974x-0.332568x^3+0.193235x^5-0.115729x^7+0.0519505x^9-0.0114658x^11"
      },
      "cos(int128)": {
        "notice": "Calculate cos(x)."
      },
      "div(int128,int128)": {
        "notice": "Divide one real by another real. Truncates overflows."
      },
      "exp(int128)": {
        "notice": "Calculate e^x with a sensible maximum iteration count to wait until convergence. Note that it is potentially possible to get an un-converged value; lack of convergence does not throw."
      },
      "expLimited(int128,int256)": {
        "notice": "Calculate e^x. Uses the series given at <http://pages.mtu.edu/~shene/COURSES/cs201/NOTES/chap04/exp.html>.     * Lets you artificially limit the number of iterations.     * Note that it is potentially possible to get an un-converged value; lack of convergence does not throw."
      },
      "fpart(int128)": {
        "notice": "Get the fractional part of a real, as a real. Ignores sign (so fpart(-0.5) is 0.5)."
      },
      "fpartSigned(int128)": {
        "notice": "Get the fractional part of a real, as a real. Respects sign (so fpartSigned(-0.5) is -0.5)."
      },
      "fraction(int88,int88)": {
        "notice": "Create a real from a rational fraction."
      },
      "fractionalBits(int128)": {
        "notice": "Returns the fractional bits of a real. Ignores the sign of the real."
      },
      "fromReal(int128)": {
        "notice": "Convert a real to an integer. Preserves sign."
      },
      "ipart(int128)": {
        "notice": "Get the integer part of a fixed point value."
      },
      "ipow(int128,int88)": {
        "notice": "Raise a number to a positive integer power in O(log power) time. See <https://stackoverflow.com/a/101613>"
      },
      "ln(int128)": {
        "notice": "Calculate a natural logarithm with a sensible maximum iteration count to wait until convergence. Note that it is potentially possible to get an un-converged value; lack of convergence does not throw."
      },
      "lnLimited(int128,int256)": {
        "notice": "Calculate the natural log of a number. Rescales the input value and uses the algorithm outlined at <https://math.stackexchange.com/a/977836> and the ipow implementation.     * Lets you artificially limit the number of iterations.     * Note that it is potentially possible to get an un-converged value; lack of convergence does not throw."
      },
      "mul(int128,int128)": {
        "notice": "Multiply one real by another. Truncates overflows."
      },
      "pow(int128,int128)": {
        "notice": "Raise any number to any power, except for negative bases to fractional powers."
      },
      "round(int128)": {
        "notice": "Round a real to the nearest integral real value."
      },
      "sin(int128)": {
        "notice": "Calculate sin(x) with a sensible maximum iteration count to wait until convergence."
      },
      "sinLimited(int128,int88)": {
        "notice": "Compute the sin of a number to a certain number of Taylor series terms."
      },
      "sqrt(int128)": {
        "notice": "Compute the square root of a number."
      },
      "tan(int128)": {
        "notice": "Calculate tan(x). May overflow for large results. May throw if tan(x) would be infinite, or return an approximation, or overflow."
      },
      "toReal(int88)": {
        "notice": "Convert an integer to a real. Preserves sign."
      }
    }
  }
}