{
  "contractName": "Chart",
  "abi": [
    {
      "constant": true,
      "inputs": [],
      "name": "payoutCurve",
      "outputs": [
        {
          "name": "",
          "type": "uint8"
        }
      ],
      "payable": false,
      "stateMutability": "view",
      "type": "function"
    },
    {
      "constant": true,
      "inputs": [
        {
          "name": "",
          "type": "bytes32"
        }
      ],
      "name": "songs",
      "outputs": [
        {
          "name": "submittedInBlock",
          "type": "uint256"
        },
        {
          "name": "currentUpvotes",
          "type": "uint256"
        },
        {
          "name": "allTimeUpvotes",
          "type": "uint256"
        }
      ],
      "payable": false,
      "stateMutability": "view",
      "type": "function"
    },
    {
      "constant": true,
      "inputs": [
        {
          "name": "",
          "type": "address"
        }
      ],
      "name": "balanceOf",
      "outputs": [
        {
          "name": "",
          "type": "uint256"
        }
      ],
      "payable": false,
      "stateMutability": "view",
      "type": "function"
    },
    {
      "inputs": [
        {
          "name": "_payoutCurve",
          "type": "uint8"
        },
        {
          "name": "_proposalCost",
          "type": "uint256"
        }
      ],
      "payable": false,
      "stateMutability": "view",
      "type": "function",
      "constant": true,
      "name": "proposalCost",
      "outputs": [
        {
          "name": "",
          "type": "uint256"
        }
      ]
    },
    {
      "anonymous": false,
      "inputs": [
        {
          "indexed": true,
          "name": "_payoutCurve",
          "type": "uint8"
        },
        {
          "indexed": false,
          "name": "_proposalCost",
          "type": "uint256"
        }
      ],
      "name": "upvoteCost",
      "type": "function",
      "payable": false,
      "stateMutability": "view",
      "constant": true,
      "outputs": [
        {
          "name": "",
          "type": "uint256"
        }
      ]
    },
    {
      "anonymous": false,
      "inputs": [
        {
          "indexed": true,
          "name": "_payoutCurve",
          "type": "uint8"
        },
        {
          "indexed": false,
          "name": "_proposalCost",
          "type": "uint256"
        }
      ],
      "name": "SongProposed",
      "type": "constructor",
      "payable": false,
      "stateMutability": "nonpayable"
    },
    {
      "constant": false,
      "inputs": [
        {
          "name": "proposer",
          "type": "address",
          "indexed": true
        },
        {
          "indexed": false,
          "name": "cid",
          "type": "bytes32"
        }
      ],
      "name": "SongProposed",
      "outputs": [],
      "payable": false,
      "stateMutability": "nonpayable",
      "type": "event",
      "anonymous": false
    },
    {
      "constant": false,
      "inputs": [
        {
          "name": "upvoter",
          "type": "address",
          "indexed": true
        },
        {
          "indexed": false,
          "name": "cid",
          "type": "bytes32"
        }
      ],
      "name": "SongUpvoted",
      "outputs": [],
      "payable": false,
      "stateMutability": "nonpayable",
      "type": "event",
      "anonymous": false
    },
    {
      "constant": false,
      "inputs": [
        {
          "name": "cid",
          "type": "bytes32"
        }
      ],
      "name": "propose",
      "outputs": [],
      "payable": false,
      "stateMutability": "nonpayable",
      "type": "function"
    },
    {
      "constant": false,
      "inputs": [
        {
          "name": "cid",
          "type": "bytes32"
        }
      ],
      "name": "upvote",
      "outputs": [
        {
          "name": "",
          "type": "uint256"
        }
      ],
      "payable": false,
      "stateMutability": "nonpayable",
      "type": "function"
    },
    {
      "constant": false,
      "inputs": [
        {
          "name": "cid",
          "type": "bytes32"
        },
        {
          "name": "cid",
          "type": "bytes32"
        }
      ],
      "name": "withdraw",
      "outputs": [
        {
          "name": "",
          "type": "uint256"
        }
      ],
      "payable": false,
      "stateMutability": "nonpayable",
      "type": "function"
    },
    {
      "constant": true,
      "inputs": [
        {
          "name": "user",
          "type": "address"
        },
        {
          "name": "cid",
          "type": "bytes32"
        }
      ],
      "name": "getWithdrawableAmount",
      "outputs": [
        {
          "name": "",
          "type": "uint256"
        }
      ],
      "payable": false,
      "stateMutability": "view",
      "type": "function"
    },
    {
      "constant": true,
      "inputs": [
        {
          "name": "cid",
          "type": "bytes32"
        }
      ],
      "name": "getCurrentUpvotes",
      "outputs": [
        {
          "name": "",
          "type": "uint256"
        }
      ],
      "payable": false,
      "stateMutability": "view",
      "type": "function"
    },
    {
      "constant": true,
      "inputs": [
        {
          "name": "cid",
          "type": "bytes32"
        }
      ],
      "name": "getAllTimeUpvotes",
      "outputs": [
        {
          "name": "",
          "type": "uint256"
        }
      ],
      "payable": false,
      "stateMutability": "view",
      "type": "function"
    },
    {
      "constant": true,
      "inputs": [
        {
          "name": "cid",
          "type": "bytes32"
        }
      ],
      "name": "getSongScore",
      "outputs": [
        {
          "name": "",
          "type": "uint256"
        }
      ],
      "payable": false,
      "stateMutability": "view",
      "type": "function"
    }
  ],
  "bytecode": "0x60806040526012600a0a60010260025534801561001b57600080fd5b5060405160408061123d8339810180604052604081101561003b57600080fd5b810190808051906020019092919080519060200190929190505050816000806101000a81548160ff0219169083600181111561007357fe5b02179055506012600a0a810260018190555050506111a7806100966000396000f3fe6080604052600436106100ba576000357c0100000000000000000000000000000000000000000000000000000000900463ffffffff1680631e9a26b4146100bf5780633095ff4e146100f8578063502126431461015557806370a08231146101a457806371465c2a1461020957806380847975146102585780638e19899e146102c757806399882cdb14610302578063a5b1f44d1461033d578063e664f3b214610378578063ee95d141146103a3578063fe2e3553146103ce575b600080fd5b3480156100cb57600080fd5b506100d461041d565b604051808260018111156100e457fe5b60ff16815260200191505060405180910390f35b34801561010457600080fd5b506101316004803603602081101561011b57600080fd5b810190808035906020019092919050505061042f565b60405180848152602001838152602001828152602001935050505060405180910390f35b34801561016157600080fd5b5061018e6004803603602081101561017857600080fd5b8101908080359060200190929190505050610459565b6040518082815260200191505060405180910390f35b3480156101b057600080fd5b506101f3600480360360208110156101c757600080fd5b81019080803573ffffffffffffffffffffffffffffffffffffffff169060200190929190505050610479565b6040518082815260200191505060405180910390f35b34801561021557600080fd5b506102426004803603602081101561022c57600080fd5b8101908080359060200190929190505050610491565b6040518082815260200191505060405180910390f35b34801561026457600080fd5b506102b16004803603604081101561027b57600080fd5b81019080803573ffffffffffffffffffffffffffffffffffffffff1690602001909291908035906020019092919050505061054c565b6040518082815260200191505060405180910390f35b3480156102d357600080fd5b50610300600480360360208110156102ea57600080fd5b810190808035906020019092919050505061072f565b005b34801561030e57600080fd5b5061033b6004803603602081101561032557600080fd5b81019080803590602001909291905050506109fd565b005b34801561034957600080fd5b506103766004803603602081101561036057600080fd5b8101908080359060200190929190505050610d74565b005b34801561038457600080fd5b5061038d61114f565b6040518082815260200191505060405180910390f35b3480156103af57600080fd5b506103b8611155565b6040518082815260200191505060405180910390f35b3480156103da57600080fd5b50610407600480360360208110156103f157600080fd5b810190808035906020019092919050505061115b565b6040518082815260200191505060405180910390f35b6000809054906101000a900460ff1681565b60036020528060005260406000206000915090508060000154908060010154908060020154905083565b600060036000838152602001908152602001600020600101549050919050565b60046020528060005260406000206000915090505481565b60008060036000848152602001908152602001600020905060008160000154111515610525576040517f08c379a00000000000000000000000000000000000000000000000000000000081526004018080602001828103825260128152602001807f736f6e6720646f65736e2774206578697374000000000000000000000000000081525060200191505060405180910390fd5b600081600001544303905060018101826002015481151561054257fe5b0492505050919050565b60008060036000848152602001908152602001600020905060008160030160008673ffffffffffffffffffffffffffffffffffffffff1673ffffffffffffffffffffffffffffffffffffffff168152602001908152602001600020600001549050600082600201549050600060018111156105c357fe5b6000809054906101000a900460ff1660018111156105dd57fe5b1415610621576002816001847ffffffffffffffffffffffffffffffffffffffffffffffffffffffffffffffffe020381151561061557fe5b04019350505050610729565b60018081111561062d57fe5b6000809054906101000a900460ff16600181111561064757fe5b14156106bb576040517f08c379a000000000000000000000000000000000000000000000000000000000815260040180806020018281038252600c8152602001807f6e6f7420646f6e6520796574000000000000000000000000000000000000000081525060200191505060405180910390fd5b6040517f08c379a00000000000000000000000000000000000000000000000000000000081526004018080602001828103825260148152602001807f756e6b6e6f776e207061796f757420637572766500000000000000000000000081525060200191505060405180910390fd5b92915050565b600060036000838152602001908152602001600020905060008160030160003373ffffffffffffffffffffffffffffffffffffffff1673ffffffffffffffffffffffffffffffffffffffff16815260200190815260200160002060000154111515610828576040517f08c379a000000000000000000000000000000000000000000000000000000000815260040180806020018281038252602d8152602001807f796f7520646f6e2774206861766520616e7920746f6b656e732073746f72656481526020017f20696e207468697320736f6e670000000000000000000000000000000000000081525060400191505060405180910390fd5b6000610834338461054c565b905060008260030160003373ffffffffffffffffffffffffffffffffffffffff1673ffffffffffffffffffffffffffffffffffffffff168152602001908152602001600020600101549050600081830390508084600101541015151561094e576040517f08c379a00000000000000000000000000000000000000000000000000000000081526004018080602001828103825260518152602001807f63616c63756c61746564207769746864726177616c20616d6f756e742069732081526020017f67726561746572207468616e2072656d61696e696e6720746f6b656e2073757081526020017f706c7920666f72207468697320736f6e6700000000000000000000000000000081525060600191505060405180910390fd5b828460030160003373ffffffffffffffffffffffffffffffffffffffff1673ffffffffffffffffffffffffffffffffffffffff1681526020019081526020016000206001018190555080846001016000828254039250508190555080600460003373ffffffffffffffffffffffffffffffffffffffff1673ffffffffffffffffffffffffffffffffffffffff168152602001908152602001600020600082825401925050819055505050505050565b60001515600560003373ffffffffffffffffffffffffffffffffffffffff1673ffffffffffffffffffffffffffffffffffffffff16815260200190815260200160002060009054906101000a900460ff1615151415610afa576001600560003373ffffffffffffffffffffffffffffffffffffffff1673ffffffffffffffffffffffffffffffffffffffff16815260200190815260200160002060006101000a81548160ff0219169083151502179055506012600a0a606402600460003373ffffffffffffffffffffffffffffffffffffffff1673ffffffffffffffffffffffffffffffffffffffff168152602001908152602001600020819055505b60006003600083815260200190815260200160002060000154141515610b88576040517f08c379a00000000000000000000000000000000000000000000000000000000081526004018080602001828103825260108152602001807f616c72656164792070726f706f7365640000000000000000000000000000000081525060200191505060405180910390fd5b600154600460003373ffffffffffffffffffffffffffffffffffffffff1673ffffffffffffffffffffffffffffffffffffffff1681526020019081526020016000205410151515610c41576040517f08c379a000000000000000000000000000000000000000000000000000000000815260040180806020018281038252601c8152602001807f6e6f7420656e6f75676820746f6b656e7320746f2070726f706f73650000000081525060200191505060405180910390fd5b6000600360008381526020019081526020016000209050438160000181905550600154600460003373ffffffffffffffffffffffffffffffffffffffff1673ffffffffffffffffffffffffffffffffffffffff168152602001908152602001600020600082825403925050819055506001548160010160008282540192505081905550600154816002016000828254019250508190555060018160030160003373ffffffffffffffffffffffffffffffffffffffff1673ffffffffffffffffffffffffffffffffffffffff168152602001908152602001600020600001819055503373ffffffffffffffffffffffffffffffffffffffff167f0cc60f2305b4ecf8346e50b80fb9a182172944130b812f15807a60e2144dde23836040518082815260200191505060405180910390a25050565b60001515600560003373ffffffffffffffffffffffffffffffffffffffff1673ffffffffffffffffffffffffffffffffffffffff16815260200190815260200160002060009054906101000a900460ff1615151415610e71576001600560003373ffffffffffffffffffffffffffffffffffffffff1673ffffffffffffffffffffffffffffffffffffffff16815260200190815260200160002060006101000a81548160ff0219169083151502179055506012600a0a606402600460003373ffffffffffffffffffffffffffffffffffffffff1673ffffffffffffffffffffffffffffffffffffffff168152602001908152602001600020819055505b600254600460003373ffffffffffffffffffffffffffffffffffffffff1673ffffffffffffffffffffffffffffffffffffffff1681526020019081526020016000205410151515610f2a576040517f08c379a000000000000000000000000000000000000000000000000000000000815260040180806020018281038252601b8152602001807f6e6f7420656e6f75676820746f6b656e7320746f207570766f7465000000000081525060200191505060405180910390fd5b600254600460003373ffffffffffffffffffffffffffffffffffffffff1673ffffffffffffffffffffffffffffffffffffffff16815260200190815260200160002060008282540392505081905550600060036000838152602001908152602001600020905060008160030160003373ffffffffffffffffffffffffffffffffffffffff1673ffffffffffffffffffffffffffffffffffffffff16815260200190815260200160002060000154141515611072576040517f08c379a00000000000000000000000000000000000000000000000000000000081526004018080602001828103825260228152602001807f796f75206861766520616c7265616479207570766f746564207468697320736f81526020017f6e6700000000000000000000000000000000000000000000000000000000000081525060400191505060405180910390fd5b6002548160010160008282540192505081905550600254816002016000828254019250508190555060016012600a0a6001548360010154038115156110b357fe5b04018160030160003373ffffffffffffffffffffffffffffffffffffffff1673ffffffffffffffffffffffffffffffffffffffff168152602001908152602001600020600001819055503373ffffffffffffffffffffffffffffffffffffffff167f2de08546c5799e0e3f192d9f4e611602fd254316e3e34a77742bbf7f296eacd8836040518082815260200191505060405180910390a25050565b60015481565b60025481565b60006003600083815260200190815260200160002060020154905091905056fea165627a7a72305820e5edc414454833e3b92da364ea16b0f5892ece64116d1b197108541ab518ccb00029",
  "source": "pragma solidity 0.5.0;\n\ncontract Chart\n{\n    uint constant DECIMALS = 18;\n    PayoutCurve public payoutCurve;\n    uint public proposalCost;\n    uint public upvoteCost = 1 * (10 ** DECIMALS);\n\n    constructor(PayoutCurve _payoutCurve, uint _proposalCost) public {\n        payoutCurve = _payoutCurve;\n        proposalCost = _proposalCost * (10 ** DECIMALS);\n    }\n\n    enum PayoutCurve {\n        Linear,\n        Reciprocal\n    }\n\n    struct Song {\n        // Tracks the block when the song was initially submitted (to facilitate calculating a score that decays over time)\n        uint submittedInBlock;\n        // Tracks the number of tokenized votes not yet withdrawn from the song.  We use this to calculate withdrawable amounts.\n        uint currentUpvotes;\n        // Tracks the total number of tokenized votes this song has received.  We use this to rank songs.\n        uint allTimeUpvotes;\n        // Maps a user's address to their place in the \"queue\" of users who have upvoted this song.  Used to calculate withdrawable amounts.\n        mapping(address => Upvote) upvotes;\n    }\n\n    struct Upvote {\n        uint index; // 1-based index\n        uint withdrawnAmount;\n    }\n\n    mapping(bytes32 => Song) public songs;\n    mapping(address => uint) public balanceOf; // token balances\n    mapping(address => bool) knownAddresses;\n\n    //\n    // Events\n    //\n\n    event SongProposed(address indexed proposer, bytes32 cid);\n    event SongUpvoted(address indexed upvoter, bytes32 cid);\n\n    //\n    // Upvote mechanism\n    //\n\n    modifier maybeTokenGrant {\n        if (knownAddresses[msg.sender] == false) {\n            knownAddresses[msg.sender] = true;\n            balanceOf[msg.sender] = 100 * (10 ** DECIMALS);\n        }\n        _;\n    }\n\n    function propose(bytes32 cid) maybeTokenGrant public {\n        require(songs[cid].submittedInBlock == 0, \"already proposed\");\n        require(balanceOf[msg.sender] >= proposalCost, \"not enough tokens to propose\");\n\n        Song storage song = songs[cid];\n        song.submittedInBlock = block.number;\n\n        balanceOf[msg.sender] -= proposalCost;\n        song.currentUpvotes += proposalCost;\n        song.allTimeUpvotes += proposalCost;\n        song.upvotes[msg.sender].index = 1;\n\n        emit SongProposed(msg.sender, cid);\n    }\n\n    function upvote(bytes32 cid) maybeTokenGrant public {\n        require(balanceOf[msg.sender] >= upvoteCost, \"not enough tokens to upvote\");\n        balanceOf[msg.sender] -= upvoteCost;\n\n        Song storage song = songs[cid];\n        require(song.upvotes[msg.sender].index == 0, \"you have already upvoted this song\");\n\n        song.currentUpvotes += upvoteCost;\n        song.allTimeUpvotes += upvoteCost;\n        song.upvotes[msg.sender].index = ((song.currentUpvotes - proposalCost) / (10 ** DECIMALS)) + 1;\n\n        emit SongUpvoted(msg.sender, cid);\n    }\n\n    function withdraw(bytes32 cid) public {\n        Song storage song = songs[cid];\n\n        require(song.upvotes[msg.sender].index > 0, \"you don't have any tokens stored in this song\");\n\n        uint totalWithdrawable = getWithdrawableAmount(msg.sender, cid);\n        uint alreadyWithdrawn = song.upvotes[msg.sender].withdrawnAmount;\n        uint amountToWithdraw = totalWithdrawable - alreadyWithdrawn;\n\n        require(song.currentUpvotes >= amountToWithdraw, \"calculated withdrawal amount is greater than remaining token supply for this song\");\n\n        song.upvotes[msg.sender].withdrawnAmount = totalWithdrawable;\n\n        song.currentUpvotes -= amountToWithdraw;\n        balanceOf[msg.sender] += amountToWithdraw;\n    }\n\n    //\n    // Getters\n    //\n\n    function getWithdrawableAmount(address user, bytes32 cid) public view returns (uint) {\n        Song storage song = songs[cid];\n        uint i = song.upvotes[user].index;\n        uint t = song.allTimeUpvotes;\n\n        if (payoutCurve == PayoutCurve.Linear) {\n            return (((uint(-2) * i) - 1) / t) + 2;\n        } else if (payoutCurve == PayoutCurve.Reciprocal) {\n            revert(\"not done yet\");\n        } else {\n            revert(\"unknown payout curve\");\n        }\n    }\n\n    function getCurrentUpvotes(bytes32 cid) public view returns (uint) {\n        return songs[cid].currentUpvotes;\n    }\n\n    function getAllTimeUpvotes(bytes32 cid) public view returns (uint) {\n        return songs[cid].allTimeUpvotes;\n    }\n\n    function getSongScore(bytes32 cid) public view returns (uint) {\n        Song storage song = songs[cid];\n        require(song.submittedInBlock > 0, \"song doesn't exist\");\n\n        uint delta = block.number - song.submittedInBlock;\n        // @@TODO: this way of calculating decay is completely arbitrary\n        return song.allTimeUpvotes / (delta + 1);\n    }\n}\n\n",
  "sourcePath": "/home/bryn/projects/ujo/contracts-curation/contracts/Chart.sol",
  "compiler": {
    "name": "solc",
    "version": "0.5.0+commit.1d4f565a.Emscripten.clang"
  },
  "schemaVersion": "3.0.9",
  "updatedAt": "2019-05-17T23:36:31.906Z",
  "devdoc": {
    "methods": {}
  },
  "userdoc": {
    "methods": {}
  }
}