{
  "contractName": "Chart",
  "abi": [
    {
      "constant": true,
      "inputs": [],
      "name": "payoutCurve",
      "outputs": [
        {
          "name": "",
          "type": "uint8"
        }
      ],
      "payable": false,
      "stateMutability": "view",
      "type": "function"
    },
    {
      "constant": true,
      "inputs": [
        {
          "name": "",
          "type": "address"
        }
      ],
      "name": "balanceOf",
      "outputs": [
        {
          "name": "",
          "type": "uint256"
        }
      ],
      "payable": false,
      "stateMutability": "view",
      "type": "function"
    },
    {
      "constant": true,
      "inputs": [],
      "name": "proposalCost",
      "outputs": [
        {
          "name": "",
          "type": "uint256"
        }
      ],
      "payable": false,
      "stateMutability": "view",
      "type": "function"
    },
    {
      "inputs": [
        {
          "name": "_payoutCurve",
          "type": "uint8"
        },
        {
          "name": "_proposalCost",
          "type": "uint256"
        }
      ],
      "payable": false,
      "stateMutability": "nonpayable",
      "type": "constructor"
    },
    {
      "anonymous": false,
      "inputs": [
        {
          "indexed": true,
          "name": "proposer",
          "type": "address"
        },
        {
          "indexed": false,
          "name": "cid",
          "type": "bytes32"
        }
      ],
      "name": "SongProposed",
      "type": "event"
    },
    {
      "anonymous": false,
      "inputs": [
        {
          "indexed": true,
          "name": "upvoter",
          "type": "address"
        },
        {
          "indexed": false,
          "name": "cid",
          "type": "bytes32"
        }
      ],
      "name": "SongUpvoted",
      "type": "event"
    },
    {
      "constant": false,
      "inputs": [
        {
          "name": "cid",
          "type": "bytes32"
        }
      ],
      "name": "propose",
      "outputs": [],
      "payable": false,
      "stateMutability": "nonpayable",
      "type": "function"
    },
    {
      "constant": false,
      "inputs": [
        {
          "name": "cid",
          "type": "bytes32"
        }
      ],
      "name": "upvote",
      "outputs": [],
      "payable": false,
      "stateMutability": "nonpayable",
      "type": "function"
    },
    {
      "constant": false,
      "inputs": [
        {
          "name": "cid",
          "type": "bytes32"
        }
      ],
      "name": "withdraw",
      "outputs": [],
      "payable": false,
      "stateMutability": "nonpayable",
      "type": "function"
    },
    {
      "constant": true,
      "inputs": [
        {
          "name": "user",
          "type": "address"
        },
        {
          "name": "cid",
          "type": "bytes32"
        }
      ],
      "name": "getWithdrawableAmount",
      "outputs": [
        {
          "name": "",
          "type": "uint256"
        }
      ],
      "payable": false,
      "stateMutability": "view",
      "type": "function"
    },
    {
      "constant": true,
      "inputs": [
        {
          "name": "cid",
          "type": "bytes32"
        }
      ],
      "name": "getCurrentUpvotes",
      "outputs": [
        {
          "name": "",
          "type": "uint256"
        }
      ],
      "payable": false,
      "stateMutability": "view",
      "type": "function"
    },
    {
      "constant": true,
      "inputs": [
        {
          "name": "cid",
          "type": "bytes32"
        }
      ],
      "name": "getAllTimeUpvotes",
      "outputs": [
        {
          "name": "",
          "type": "uint256"
        }
      ],
      "payable": false,
      "stateMutability": "view",
      "type": "function"
    },
    {
      "constant": true,
      "inputs": [
        {
          "name": "cid",
          "type": "bytes32"
        }
      ],
      "name": "getSongScore",
      "outputs": [
        {
          "name": "",
          "type": "uint256"
        }
      ],
      "payable": false,
      "stateMutability": "view",
      "type": "function"
    }
  ],
  "bytecode": "0x608060405234801561001057600080fd5b50604051604080610f558339810180604052604081101561003057600080fd5b810190808051906020019092919080519060200190929190505050816000806101000a81548160ff0219169083600181111561006857fe5b0217905550806001819055505050610ed0806100856000396000f3fe6080604052600436106100a4576000357c0100000000000000000000000000000000000000000000000000000000900463ffffffff1680631e9a26b4146100a957806350212643146100e257806370a082311461013157806371465c2a1461019657806380847975146101e55780638e19899e1461025457806399882cdb1461028f578063a5b1f44d146102ca578063e664f3b214610305578063fe2e355314610330575b600080fd5b3480156100b557600080fd5b506100be61037f565b604051808260018111156100ce57fe5b60ff16815260200191505060405180910390f35b3480156100ee57600080fd5b5061011b6004803603602081101561010557600080fd5b8101908080359060200190929190505050610391565b6040518082815260200191505060405180910390f35b34801561013d57600080fd5b506101806004803603602081101561015457600080fd5b81019080803573ffffffffffffffffffffffffffffffffffffffff1690602001909291905050506103b1565b6040518082815260200191505060405180910390f35b3480156101a257600080fd5b506101cf600480360360208110156101b957600080fd5b81019080803590602001909291905050506103c9565b6040518082815260200191505060405180910390f35b3480156101f157600080fd5b5061023e6004803603604081101561020857600080fd5b81019080803573ffffffffffffffffffffffffffffffffffffffff16906020019092919080359060200190929190505050610487565b6040518082815260200191505060405180910390f35b34801561026057600080fd5b5061028d6004803603602081101561027757600080fd5b810190808035906020019092919050505061066a565b005b34801561029b57600080fd5b506102c8600480360360208110156102b257600080fd5b8101908080359060200190929190505050610938565b005b3480156102d657600080fd5b50610303600480360360208110156102ed57600080fd5b8101908080359060200190929190505050610bb2565b005b34801561031157600080fd5b5061031a610e7e565b6040518082815260200191505060405180910390f35b34801561033c57600080fd5b506103696004803603602081101561035357600080fd5b8101908080359060200190929190505050610e84565b6040518082815260200191505060405180910390f35b6000809054906101000a900460ff1681565b600060026000838152602001908152602001600020600101549050919050565b60036020528060005260406000206000915090505481565b6000806002600084815260200190815260200160002090506000816000015411151561045d576040517f08c379a00000000000000000000000000000000000000000000000000000000081526004018080602001828103825260128152602001807f736f6e6720646f65736e2774206578697374000000000000000000000000000081525060200191505060405180910390fd5b600081600001544303905060018101600181151561047757fe5b0482600201540292505050919050565b60008060026000848152602001908152602001600020905060008160030160008673ffffffffffffffffffffffffffffffffffffffff1673ffffffffffffffffffffffffffffffffffffffff168152602001908152602001600020600001549050600082600201549050600060018111156104fe57fe5b6000809054906101000a900460ff16600181111561051857fe5b141561055c576002816001847ffffffffffffffffffffffffffffffffffffffffffffffffffffffffffffffffe020381151561055057fe5b04019350505050610664565b60018081111561056857fe5b6000809054906101000a900460ff16600181111561058257fe5b14156105f6576040517f08c379a000000000000000000000000000000000000000000000000000000000815260040180806020018281038252600c8152602001807f6e6f7420646f6e6520796574000000000000000000000000000000000000000081525060200191505060405180910390fd5b6040517f08c379a00000000000000000000000000000000000000000000000000000000081526004018080602001828103825260148152602001807f756e6b6e6f776e207061796f757420637572766500000000000000000000000081525060200191505060405180910390fd5b92915050565b600060026000838152602001908152602001600020905060008160030160003373ffffffffffffffffffffffffffffffffffffffff1673ffffffffffffffffffffffffffffffffffffffff16815260200190815260200160002060000154111515610763576040517f08c379a000000000000000000000000000000000000000000000000000000000815260040180806020018281038252602d8152602001807f796f7520646f6e2774206861766520616e7920746f6b656e732073746f72656481526020017f20696e207468697320736f6e670000000000000000000000000000000000000081525060400191505060405180910390fd5b600061076f3384610487565b905060008260030160003373ffffffffffffffffffffffffffffffffffffffff1673ffffffffffffffffffffffffffffffffffffffff1681526020019081526020016000206001015490506000818303905080846001015410151515610889576040517f08c379a00000000000000000000000000000000000000000000000000000000081526004018080602001828103825260518152602001807f63616c63756c61746564207769746864726177616c20616d6f756e742069732081526020017f67726561746572207468616e2072656d61696e696e6720746f6b656e2073757081526020017f706c7920666f72207468697320736f6e6700000000000000000000000000000081525060600191505060405180910390fd5b828460030160003373ffffffffffffffffffffffffffffffffffffffff1673ffffffffffffffffffffffffffffffffffffffff1681526020019081526020016000206001018190555080846001016000828254039250508190555080600360003373ffffffffffffffffffffffffffffffffffffffff1673ffffffffffffffffffffffffffffffffffffffff168152602001908152602001600020600082825401925050819055505050505050565b600060026000838152602001908152602001600020600001541415156109c6576040517f08c379a00000000000000000000000000000000000000000000000000000000081526004018080602001828103825260108152602001807f616c72656164792070726f706f7365640000000000000000000000000000000081525060200191505060405180910390fd5b600154600360003373ffffffffffffffffffffffffffffffffffffffff1673ffffffffffffffffffffffffffffffffffffffff1681526020019081526020016000205410151515610a7f576040517f08c379a000000000000000000000000000000000000000000000000000000000815260040180806020018281038252601c8152602001807f6e6f7420656e6f75676820746f6b656e7320746f2070726f706f73650000000081525060200191505060405180910390fd5b6000600260008381526020019081526020016000209050438160000181905550600154600360003373ffffffffffffffffffffffffffffffffffffffff1673ffffffffffffffffffffffffffffffffffffffff168152602001908152602001600020600082825403925050819055506001548160010160008282540192505081905550600154816002016000828254019250508190555060018160030160003373ffffffffffffffffffffffffffffffffffffffff1673ffffffffffffffffffffffffffffffffffffffff168152602001908152602001600020600001819055503373ffffffffffffffffffffffffffffffffffffffff167f0cc60f2305b4ecf8346e50b80fb9a182172944130b812f15807a60e2144dde23836040518082815260200191505060405180910390a25050565b6001600360003373ffffffffffffffffffffffffffffffffffffffff1673ffffffffffffffffffffffffffffffffffffffff1681526020019081526020016000205410151515610c6a576040517f08c379a000000000000000000000000000000000000000000000000000000000815260040180806020018281038252601b8152602001807f6e6f7420656e6f75676820746f6b656e7320746f207570766f7465000000000081525060200191505060405180910390fd5b6001600360003373ffffffffffffffffffffffffffffffffffffffff1673ffffffffffffffffffffffffffffffffffffffff16815260200190815260200160002060008282540392505081905550600060026000838152602001908152602001600020905060008160030160003373ffffffffffffffffffffffffffffffffffffffff1673ffffffffffffffffffffffffffffffffffffffff16815260200190815260200160002060000154141515610db1576040517f08c379a00000000000000000000000000000000000000000000000000000000081526004018080602001828103825260228152602001807f796f75206861766520616c7265616479207570766f746564207468697320736f81526020017f6e6700000000000000000000000000000000000000000000000000000000000081525060400191505060405180910390fd5b8060010160008154809291906001019190505550806002016000815480929190600101919050555060018054826001015403018160030160003373ffffffffffffffffffffffffffffffffffffffff1673ffffffffffffffffffffffffffffffffffffffff168152602001908152602001600020600001819055503373ffffffffffffffffffffffffffffffffffffffff167f2de08546c5799e0e3f192d9f4e611602fd254316e3e34a77742bbf7f296eacd8836040518082815260200191505060405180910390a25050565b60015481565b60006002600083815260200190815260200160002060020154905091905056fea165627a7a72305820601504aa9f5523dd3c91f00112df0d6c8d4edd69775eb49d91af20bf7a6f972c0029",
  "source": "pragma solidity 0.5.0;\n\ncontract Chart\n{\n    PayoutCurve public payoutCurve;\n    uint public proposalCost;\n\n    constructor(PayoutCurve _payoutCurve, uint _proposalCost) public {\n        payoutCurve = _payoutCurve;\n        proposalCost = _proposalCost;\n    }\n\n    enum PayoutCurve {\n        Linear,\n        Reciprocal\n    }\n\n    struct Song {\n        // Tracks the block when the song was initially submitted (to facilitate calculating a score that decays over time)\n        uint submittedInBlock;\n        // Tracks the number of tokenized votes not yet withdrawn from the song.  We use this to calculate withdrawable amounts.\n        uint currentUpvotes;\n        // Tracks the total number of tokenized votes this song has received.  We use this to rank songs.\n        uint allTimeUpvotes;\n        // Maps a user's address to their place in the \"queue\" of users who have upvoted this song.  Used to calculate withdrawable amounts.\n        mapping(address => Upvote) upvotes;\n    }\n\n    struct Upvote {\n        uint index; // 1-based index\n        uint withdrawnAmount;\n    }\n\n    mapping(bytes32 => Song) songs;\n    mapping(address => uint) public balanceOf; // token balances\n\n    //\n    // Events\n    //\n\n    event SongProposed(address indexed proposer, bytes32 cid);\n    event SongUpvoted(address indexed upvoter, bytes32 cid);\n\n    //\n    // Upvote mechanism\n    //\n\n    function propose(bytes32 cid) public {\n        require(songs[cid].submittedInBlock == 0, \"already proposed\");\n        require(balanceOf[msg.sender] >= proposalCost, \"not enough tokens to propose\");\n\n        Song storage song = songs[cid];\n        song.submittedInBlock = block.number;\n\n        balanceOf[msg.sender] -= proposalCost;\n        song.currentUpvotes += proposalCost;\n        song.allTimeUpvotes += proposalCost;\n        song.upvotes[msg.sender].index = 1;\n\n        emit SongProposed(msg.sender, cid);\n    }\n\n    function upvote(bytes32 cid) public {\n        require(balanceOf[msg.sender] >= 1, \"not enough tokens to upvote\");\n        balanceOf[msg.sender] -= 1;\n\n        Song storage song = songs[cid];\n        require(song.upvotes[msg.sender].index == 0, \"you have already upvoted this song\");\n\n        song.currentUpvotes++;\n        song.allTimeUpvotes++;\n        song.upvotes[msg.sender].index = song.currentUpvotes - proposalCost + 1;\n\n        // token.mint(1 * (10**token.decimals()), address(this));\n\n        emit SongUpvoted(msg.sender, cid);\n    }\n\n    function withdraw(bytes32 cid) public {\n        Song storage song = songs[cid];\n\n        require(song.upvotes[msg.sender].index > 0, \"you don't have any tokens stored in this song\");\n\n        uint totalWithdrawable = getWithdrawableAmount(msg.sender, cid);\n        uint alreadyWithdrawn = song.upvotes[msg.sender].withdrawnAmount;\n        uint amountToWithdraw = totalWithdrawable - alreadyWithdrawn;\n\n        require(song.currentUpvotes >= amountToWithdraw, \"calculated withdrawal amount is greater than remaining token supply for this song\");\n\n        song.upvotes[msg.sender].withdrawnAmount = totalWithdrawable;\n\n        song.currentUpvotes -= amountToWithdraw;\n        balanceOf[msg.sender] += amountToWithdraw;\n    }\n\n    //\n    // Getters\n    //\n\n    function getWithdrawableAmount(address user, bytes32 cid) public view returns (uint) {\n        Song storage song = songs[cid];\n        uint i = song.upvotes[user].index;\n        uint t = song.allTimeUpvotes;\n\n        if (payoutCurve == PayoutCurve.Linear) {\n            return (((uint(-2) * i) - 1) / t) + 2;\n        } else if (payoutCurve == PayoutCurve.Reciprocal) {\n            revert(\"not done yet\");\n        } else {\n            revert(\"unknown payout curve\");\n        }\n    }\n\n    function getCurrentUpvotes(bytes32 cid) public view returns (uint) {\n        return songs[cid].currentUpvotes;\n    }\n\n    function getAllTimeUpvotes(bytes32 cid) public view returns (uint) {\n        return songs[cid].allTimeUpvotes;\n    }\n\n    function getSongScore(bytes32 cid) public view returns (uint) {\n        Song storage song = songs[cid];\n        require(song.submittedInBlock > 0, \"song doesn't exist\");\n\n        uint delta = block.number - song.submittedInBlock;\n        // @@TODO: this way of calculating decay is completely arbitrary\n        return song.allTimeUpvotes * (1 / (delta + 1));\n    }\n}\n\n",
  "sourcePath": "/home/bryn/projects/ujo/contracts-curation/contracts/Chart.sol",
  "compiler": {
    "name": "solc",
    "version": "0.5.0+commit.1d4f565a.Emscripten.clang"
  },
  "schemaVersion": "3.0.9",
  "updatedAt": "2019-05-17T06:46:40.085Z",
  "devdoc": {
    "methods": {}
  },
  "userdoc": {
    "methods": {}
  }
}